S0200000636F6E74726F6C206C6564207573696E6720627574746F6E2E73726563AC
S11300000C942A000C9447000C9447000C9447006D
S11300100C9447000C9447000C9447000C94470040
S11300200C9447000C9447000C9447000C94470030
S11300300C9447000C9447000C9447000C94470020
S11300400C9447000C9447000C9447000C94470010
S11300500C94470011241FBECFE5D8E0DEBFCDBF0E
S113006010E0A0E6B0E0E0EBF3E002C005900D92F2
S1130070A036B107D9F710E0A0E6B0E001C01D92A8
S1130080A036B107E1F70E94A2010C94D6010C94AA
S1130090000040E00E94500008950E94F40008957A
S11300A08234E9F0833420F4813409F04AC006C074
S11300B0833431F1843409F044C033C02AB381E07D
S11300C090E002C0880F991F6A95E2F7413019F455
S11300D0282B2ABB0895809582238ABB089527B3D1
S11300E081E090E002C0880F991F6A95E2F74130E1
S11300F019F4282B27BB08958095822387BB089584
S113010024B381E090E002C0880F991F6A95E2F75A
S1130110413019F4282B24BB08958095822384BB95
S1130120089521B381E090E002C0880F991F6A9579
S1130130E2F7413019F4282B21BB089580958223DE
S113014081BB08958234E9F0833420F4813409F0CA
S11301504AC006C0833431F1843409F044C033C04A
S11301602BB381E090E002C0880F991F6A95E2F7F3
S1130170413019F4282B2BBB0895809582238BBB27
S1130180089528B381E090E002C0880F991F6A9512
S1130190E2F7413019F4282B28BB08958095822377
S11301A088BB089525B381E090E002C0880F991FB1
S11301B06A95E2F7413019F4282B25BB0895809500
S11301C0822385BB089522B381E090E002C0880FAA
S11301D0991F6A95E2F7413019F4282B22BB089540
S11301E08095822382BB0895823461F0833418F4AD
S11301F08134F1F405C0833439F08434C9F406C081
S113020029B305C026B303C023B301C020B381E0E2
S113021090E0062E02C0880F991F0A94E2F730E09E
S11302208223932302C0959587956A95E2F70895F2
S113023080E008958234A9F0833418F4813489F578
S113024005C08334C9F0843461F521C02BB381E047
S113025090E002C0880F991F6A95E2F728272BBB0C
S1130260089528B381E090E002C0880F991F6A9531
S1130270E2F7282728BB089525B381E090E002C067
S1130280880F991F6A95E2F7282725BB089522B3A2
S113029081E090E002C0880F991F6A95E2F7282751
S11302A022BB0895823461F0833418F4813469F4F4
S11302B005C0833439F0843441F406C06ABB089520
S11302C067BB089564BB089561BB0895823461F0EF
S11302D0833418F4813469F405C0833439F08434E8
S11302E041F406C06BBB089568BB089565BB0895CF
S11302F062BB0895823461F0833418F4813471F45C
S113030005C0833439F0843449F406C089B30895B0
S113031086B3089583B3089580B3089580E0089563
S113032041E00E945000089541E00E94A200089517
S113033040E00E94A20008950E941A0108950E94BC
S1130340F400089584E460E00E94900184E461E094
S11303500E94900184E462E00E94900184E463E0DE
S11303600E94900184E464E00E94900184E465E0CA
S11303700E94900184E466E00E94900184E467E0B6
S11303800E949001C1E0D0E084E46C2F0E949401AB
S11303908FEF90E7A2E081509040A040E1F700C0C9
S11303A000002196C830D1056CF7EECFF894FFCF4A
S9030000FC
