:100000000C942A000C9447000C9447000C94470071
:100010000C9447000C9447000C9447000C94470044
:100020000C9447000C9447000C9447000C94470034
:100030000C9447000C9447000C9447000C94470024
:100040000C9447000C9447000C9447000C94470014
:100050000C94470011241FBECFE5D8E0DEBFCDBF12
:1000600010E0A0E6B0E0E2ECF0E002C005900D92F6
:10007000A036B107D9F710E0A0E6B0E001C01D92AC
:10008000A036B107E1F70E9449000C945F000C9480
:100090000000D09AD89A8FEF99E6A8E1815090405D
:1000A000A040E1F700C000001BBA8FEF99E6A8E17D
:1000B00081509040A040E1F700C00000EBCFF894E1
:0200C000FFCF70
:00000001FF
