:100000000C942A000C9447000C9447000C94470071
:100010000C9447000C9447000C9447000C94470044
:100020000C9447000C9447000C948C090C944700E6
:100030000C9447000C9447000C9447000C94470024
:100040000C9447000C9447000C9447000C94470014
:100050000C94470011241FBECFE5D8E0DEBFCDBF12
:1000600012E0A0E6B0E0EEE0F9E102C005900D92EA
:10007000A639B107D9F712E0A6E9B2E001C01D9296
:10008000A939B107E1F70E9476040C94850C0C9411
:100090000000823451F1833420F4813409F07BC0B4
:1000A00007C0833409F43EC0843409F074C057C0DB
:1000B000413069F42AB381E090E0AC0102C0440F02
:1000C000551F6A95E2F7BA01622B6ABB08952AB3FD
:1000D00081E090E0AC0102C0440F551F6A95E2F741
:1000E000BA01609562236ABB0895413069F427B371
:1000F00081E090E0AC0102C0440F551F6A95E2F721
:10010000BA01622B67BB089527B381E090E0AC0190
:1001100002C0440F551F6A95E2F7BA016095622349
:1001200067BB0895413069F424B381E090E0AC01ED
:1001300002C0440F551F6A95E2F7BA01622B64BBF7
:10014000089524B381E090E0AC0102C0440F551F34
:100150006A95E2F7BA016095622364BB0895413065
:1001600069F421B381E090E0AC0102C0440F551F57
:100170006A95E2F7BA01622B61BB089521B381E071
:1001800090E0AC0102C0440F551F6A95E2F7BA0136
:100190006095622361BB0895823451F1833420F469
:1001A000813409F07BC007C0833409F43EC0843435
:1001B00009F074C057C0413069F42BB381E090E07E
:1001C000AC0102C0440F551F6A95E2F7BA01622BD9
:1001D0006BBB08952BB381E090E0AC0102C0440FEB
:1001E000551F6A95E2F7BA01609562236BBB0895CB
:1001F000413069F428B381E090E0AC0102C0440FC3
:10020000551F6A95E2F7BA01622B68BB089528B3BF
:1002100081E090E0AC0102C0440F551F6A95E2F7FF
:10022000BA016095622368BB0895413069F425B333
:1002300081E090E0AC0102C0440F551F6A95E2F7DF
:10024000BA01622B65BB089525B381E090E0AC0153
:1002500002C0440F551F6A95E2F7BA016095622308
:1002600065BB0895413069F422B381E090E0AC01B0
:1002700002C0440F551F6A95E2F7BA01622B62BBB8
:10028000089522B381E090E0AC0102C0440F551FF5
:100290006A95E2F7BA016095622362BB08958234E1
:1002A000F1F0833420F4813409F04FC006C0833468
:1002B00041F1843409F049C036C029B381E090E0AF
:1002C000062E02C0880F991F0A94E2F730E08223BD
:1002D000932302C0959587956A95E2F7089526B312
:1002E00081E090E0062E02C0880F991F0A94E2F781
:1002F00030E08223932302C0959587956A95E2F7B3
:10030000089523B381E090E0062E02C0880F991F64
:100310000A94E2F730E08223932302C095958795F3
:100320006A95E2F7089520B381E090E0062E02C0BE
:10033000880F991F0A94E2F730E08223932302C0CA
:10034000959587956A95E2F7089580E0089582343F
:10035000B9F0833418F48134C9F505C08334E9F069
:100360008434A1F527C02BB381E090E0AC0102C03A
:10037000440F551F6A95E2F7BA0162276BBB0895D7
:1003800028B381E090E0AC0102C0440F551F6A958C
:10039000E2F7BA01622768BB089525B381E090E0D7
:1003A000AC0102C0440F551F6A95E2F7BA016227FB
:1003B00065BB089522B381E090E0AC0102C0440F18
:1003C000551F6A95E2F7BA01622762BB089582342D
:1003D00061F0833418F4813469F405C0833439F052
:1003E000843441F406C06BBB089568BB089565BBB7
:1003F000089562BB0895823479F0833418F481340F
:10040000C9F405C0833469F08434A1F40FC08BB300
:10041000607F682B6BBB089588B3607F682B68BBD7
:10042000089585B3607F682B65BB089582B3607FB4
:10043000682B62BB0895823471F0833418F48134E0
:10044000A9F405C0833459F0843481F40CC08BB313
:100450008F708BBB089588B38F7088BB089585B368
:100460008F7085BB089582B38F7082BB08958234EC
:1004700091F1833420F4813409F09BC007C08334A8
:1004800009F44EC0843409F094C06FC04130A9F41F
:1004900080B78B7F80BF2AB381E090E0AC0102C0BF
:1004A000440F551F6A95E2F7BA01842F8095822385
:1004B0008ABB8BB3682B6BBB08952BB381E090E0B4
:1004C000AC0102C0440F551F6A95E2F7BA0160956E
:1004D00062236BBB08954130A9F480B78B7F80BF46
:1004E00027B381E090E0AC0102C0440F551F6A952C
:1004F000E2F7BA01842F8095822387BB88B3682BEB
:1005000068BB089528B381E090E0AC0102C0440FBD
:10051000551F6A95E2F7BA016095622368BB08959A
:100520004130A9F480B78B7F80BF24B381E090E095
:10053000AC0102C0440F551F6A95E2F7BA01842F3F
:100540008095822384BB85B3682B65BB089525B352
:1005500081E090E0AC0102C0440F551F6A95E2F7BC
:10056000BA016095622365BB08954130A9F480B754
:100570008B7F80BF21B381E090E0AC0102C0440FCB
:10058000551F6A95E2F7BA01842F8095822381BBBB
:1005900082B3682B62BB089522B381E090E0AC0186
:1005A00002C0440F551F6A95E2F7BA0160956223B5
:1005B00062BB0895E199FECF9FBB8EBBE09A8DB3DD
:1005C0000895DC01E199FECF4115510589F0E62F30
:1005D000F72F20E030E0C9018A0F9B1F9FBB8EBB25
:1005E000E09A8DB381932F5F3F4F2417350799F71A
:1005F0000895E199FECF9FBB8EBBE09A8DB386171D
:1006000019F06DBBE29AE19A0895DC01411551059C
:10061000C1F0E62FF72F20E030E0E199FECFC901CD
:100620008A0F9B1F9FBB8EBBE09A9DB38191981749
:1006300019F08DBBE29AE19A2F5F3F4F24173507DF
:1006400061F7089584E460E041E00E94490084E499
:1006500061E041E00E94490084E462E041E00E94E0
:10066000490084E463E041E00E94490084E464E0DE
:1006700040E00E94490084E465E040E00E944900B7
:1006800084E466E040E00E94490084E467E040E0E2
:100690000E94490084E464E041E00E94370284E45F
:1006A00065E041E00E94370284E466E041E00E9498
:1006B000370284E467E041E00E9437020895EF9238
:1006C000FF920F931F93CF93DF93CDB7DEB7609761
:1006D0000FB6F894DEBF0FBECDBFDE011196E0E687
:1006E000F0E080E101900D928150E1F7EE24FF24CB
:1006F0000FEF84E460E041E00E94CC0084E461E01C
:1007000041E00E94CC0084E462E041E00E94CC0021
:1007100084E463E041E00E94CC008FE39CE9019710
:10072000F1F700C0000084E46E2D40E00E94CC0090
:1007300010E0612F6C5F84E40E944F01882379F4FC
:10074000F701EE0FFF1FEE0FFF1FE10FF11D81E01C
:1007500090E08C0F9D1FE80FF91F008103C01F5F01
:10076000143039F70894E11CF11C94E0E916F10407
:1007700009F0BFCF802F60960FB6F894DEBF0FBE92
:10078000CDBFDF91CF911F910F91FF90EF90089512
:1007900082E460E041E00E94CC008FE99FE0019795
:1007A000F1F700C0000082E460E040E00E94CC006D
:1007B0008FE99FE00197F1F700C000000895682FCE
:1007C00081E40E94E70182E461E040E00E94CC0005
:1007D0000E94C803089581E460E041E00E9449005E
:1007E00081E461E041E00E94490081E462E041E08F
:1007F0000E94490081E463E041E00E94490081E4F5
:1008000064E041E00E94490081E465E041E00E942B
:10081000490081E466E041E00E94490081E467E02C
:1008200041E00E94490082E460E041E00E9449000A
:1008300082E462E041E00E94490082E461E041E03C
:100840000E94490082E462E040E00E94CC0088E31C
:100850000E94DF0381E00E94DF038EE00E94DF033D
:100860008FE19EE40197F1F700C000000895682F22
:1008700081E40E94E70182E461E041E00E94CC0053
:100880000E94C8030895CF93DF93EC0188818823E9
:1008900031F021960E94370489918823D9F7DF919E
:1008A000CF91089581E00E94DF030895813019F40B
:1008B000862F815806C0823019F4862F815401C0DA
:1008C00080E80E94DF03089541E00E9449000895F6
:1008D00041E00E94CC00089540E00E94CC000895C1
:1008E0000E94A70108950E944F010895CF93DF93BE
:1008F000CDB7DEB72B970FB6F894DEBF0FBECDBFD6
:1009000083E460E00E94640483E461E00E94640484
:1009100083E462E00E9464040E94EB030E942203CD
:100920000E94E50A80E790E00E94430482E061E0D3
:100930000E94560481E890E00E9443042FEF39E6BC
:1009400048E1215030404040E1F700C000000E94E3
:10095000520480E091E00E94DA02813039F481E0B3
:1009600091E00E94DA02813009F4D1C08DE890E074
:100970000E94430482E061E00E94560487E990E00F
:100980000E9443048FEF99E6A8E181509040A04077
:10099000E1F700C000000E94520482EA90E00E9449
:1009A000430482E061E00E94560481EB90E00E94E3
:1009B00043048FEF8D838E838F8388878E010B5F37
:1009C0001F4F78010F2EFCE0DF2EF02D0E945F03F9
:1009D0008F3FE1F3D7018D937D010E9437042FEF04
:1009E00030E742E0215030404040E1F700C00000D5
:1009F00082E06D2D0E9456048AE20E9437048FEF38
:100A000090E7A2E081509040A040E1F700C00000D4
:100A1000D39490E1D916D1F682E091E0BE016B5FEC
:100A20007F4F44E050E00E94050380E091E061E0E8
:100A30000E94F9020E9452048DEB90E00E94430450
:100A40002FEF34E34CE0215030404040E1F700C04C
:100A500000000E94520488EC90E00E94430482E06F
:100A600061E00E94560487ED90E00E9443040F2E3F
:100A7000FCE0EF2EF02D0E945F038F3FE1F3D801E1
:100A80008D938D010E9437042FEF30E742E0215013
:100A900030404040E1F700C0000082E06E2D0E942F
:100AA00056048AE20E9437048FEF90E7A2E081505B
:100AB0009040A040E1F700C00000E39490E1E91607
:100AC000D1F686E091E0BE016B5F7F4F44E050E0DD
:100AD0000E94050381E091E061E00E94F9020E941A
:100AE00052048DEB90E00E9443042FEF34E34CE07E
:100AF000215030404040E1F700C000000E94520405
:100B00008AE091E060E00E94F9021B8605C08AE05D
:100B100091E00E94DA028B87EE244DE351E0498791
:100B20005A870F2EF8E44F2EF1E05F2EF02D0F2E96
:100B3000FAE6AF2EF1E0BF2EF02D809196028130C3
:100B400079F50E940A0B1092980210929702109267
:100B5000960283E461E00E946C0483E460E00E94FA
:100B60006C040E94520483EE90E00E9443042FEF35
:100B700039E648E1215030404040E1F700C0000034
:100B8000EE2400E01FEF0F2EF6E78F2EF1E09F2EF0
:100B9000F02D0F2EF1E86F2EF1E07F2EF02D04C026
:100BA000EE2079F3BDC1EE243B85313031F50E9452
:100BB000520483EF90E00E94430482E061E00E94CF
:100BC000560481E091E00E94430483E462E00E94C5
:100BD00068048FEF94E3ACE081509040A040E1F7CF
:100BE00000C0000083E462E00E946C048AE091E0AF
:100BF00060E00E94F90200E01B860E94520482E13C
:100C000091E00E94430482E061E00E94560480E289
:100C100091E00E9443041F3F29F40E945F03182FB4
:100C20008F3FD9F3812F8053823088F00E94520485
:100C300080E391E00E9443042FEF39E648E1215020
:100C400030404040E1F700C000001FEF66C18FEF69
:100C50008D838E838F83888789838A838B838C831C
:100C6000103341F0113309F058C132E0E31609F0B6
:100C7000AAC056C141E0E41609F452C182E3D82E5D
:100C8000D01A0F2EFCE0CF2EF02D0E945204898541
:100C90009A850E94430482E061E00E945604C201EA
:100CA0000E9443048FEF91EEA4E081509040A04059
:100CB000E1F700C000000F2EF5E0EF2EFF24F02D2D
:100CC000EC0EFD1E1C2D0E945F038F3FE1F3D70148
:100CD0008D937D010E9437042FEF30E742E02150D1
:100CE00030404040E1F700C0000082E0612F0E94E8
:100CF00056048AE20E9437048FEF90E7A2E0815009
:100D00009040A040E1F700C000001F5F1031D9F60D
:100D100082E091E0BE016F5F7F4F44E050E00E94AF
:100D2000E102CE010596BE016F5F7F4F44E00E9455
:100D3000A309813011F50E94520484E591E00E94DC
:100D4000430482E061E00E9456048DE391E00E943A
:100D500043042FEF34E34CE0215030404040E1F7B2
:100D600000C0000083E460E00E9468040E94F40A6E
:100D70000E945204EE24E394D3C00F5F0E945204F9
:100D80008FE591E00E94430482E061E00E945604F6
:100D9000C5010E9443048D2D0E9437048FEF99E610
:100DA000A8E181509040A040E1F700C000000E94FF
:100DB0005204DA94033008F468CF8AE091E061E0ED
:100DC0000E94F9028BC282E3D82ED01A0F2EFCE0CB
:100DD000CF2EF02D0F2EFDE82F2EF1E03F2EF02D1F
:100DE0000E945204C4010E94430482E061E00E9418
:100DF0005604C3010E9443042FEF31EE44E021501A
:100E000030404040E1F700C000000F2EF5E0EF2E2B
:100E1000FF24F02DEC0EFD1E1C2D0E945F038F3F62
:100E2000E1F3D7018D937D010E9437042FEF30E766
:100E300042E0215030404040E1F700C0000082E035
:100E4000612F0E9456048AE20E9437048FEF90E7D8
:100E5000A2E081509040A040E1F700C000001F5F79
:100E60001031D9F686E091E0BE016F5F7F4F44E01C
:100E700050E00E94E102CE010596BE016F5F7F4FF8
:100E800044E00E94A309813019F50E94520484E5D0
:100E900091E00E94430482E061E00E94560486E7EC
:100EA00091E00E9443042FEF34E34CE021503040A6
:100EB0004040E1F700C0000083E461E00E94680464
:100EC0000E94F40A0E945204EE246894E1F828C0BB
:100ED0000F5F0E945204C1010E94430482E061E05E
:100EE0000E945604C5010E9443048D2D0E943704C0
:100EF0008FEF99E6A8E181509040A040E1F700C053
:100F000000000E945204DA94033008F469CF8AE0AA
:100F100091E061E00E94F902E1C1EE2009F443CEC4
:100F200001E00F2EF8ECCF2EF1E0DF2EF02DD0C136
:100F3000053009F414C1063070F4023009F486C09B
:100F4000033018F40130A1F71BC0033009F4FBC0D3
:100F5000043071F7FEC0083009F4B8C0093030F42D
:100F6000063009F402C1073019F709C1093009F444
:100F70000CC10A30E9F6882309F40DC108E0A8C1C4
:100F80000F2EF8E98F2EF1E09F2EF02D0F2EF8EAAC
:100F90006F2EF1E07F2EF02D0F2EF8EB2F2EF1E0CB
:100FA0003F2EF02D802F0E2DE82E0E945204C401FA
:100FB0000E94430482E061E00E945604013021F463
:100FC000C3010E94430405C0023019F4C1010E940C
:100FD0004304802F0E94BF09182F2FEF30E742E013
:100FE000215030404040E1F700C00000813309F457
:100FF00079C1823309F479C1833309F479C1843327
:1010000041F4023009F477C1013029F4E02E02E006
:101010005FC18F3F91F00E945204C6010E944304B9
:101020008FEF94E3ACE081509040A040E1F700C026
:1010300000001153143008F448C1809196028823AF
:1010400009F4B3CF8E2DE02E082F42C10E94520426
:1010500084ED91E00E94430482E061E00E94560426
:1010600087EE91E00E9443048E2D0E94BF09182F45
:101070002FEF30E742E0215030404040E1F700C020
:101080000000813309F43AC1823309F439C1833352
:1010900009F438C1843309F437C18F3F91F00E94BD
:1010A0005204C6010E9443048FEF94E3ACE08150E8
:1010B0009040A040E1F700C000001153143008F444
:1010C00007C180919602882309F202C10E9452044E
:1010D00088EF91E00E94430482E061E00E945604A0
:1010E0008BE092E00E9443048E2D0E94BF09182FCE
:1010F0002FEF30E742E0215030404040E1F700C0A0
:101100000000813309F402C1823309F401C1803344
:1011100009F400C18F3F91F00E945204C6010E9461
:1011200043048FEF94E3ACE081509040A040E1F79E
:1011300000C000001053133008F4CAC0809196021A
:10114000882321F2C5C083E06E2D0E94E00901E0F2
:10115000BFC084E06E2D0E94E00901E0B9C085E0C7
:101160006E2D0E94E00901E0B3C086E06E2D0E9462
:10117000E00992E0E91609F0A0C001E0A9C087E00B
:101180006E2D0E94E00902E0A3C089E06E2D0E944E
:10119000E00908E09DC00E9452048CE192E00E94A8
:1011A00043048FED0E94370483E40E94370481E0FA
:1011B0006BE00E9456042FEF31EE44E021503040A6
:1011C0004040E1F700C000008E2D0E94BF092FEFC4
:1011D00030E742E0215030404040E1F700C00000DD
:1011E00090919602913009F46AC0182F10531A306A
:1011F00078F00E945204C6010E9443048FEF94E3EA
:10120000ACE081509040A040E1F700C000004EC02B
:101210000E9437048E2D0E94BF092FEF30E742E075
:10122000215030404040E1F700C00000909196020C
:10123000913009F446C0082F00530A3078F00E941C
:101240005204C6010E9443048FEF94E3ACE0815046
:101250009040A040E1F700C0000028C00E94370481
:10126000110F812F880F880F180F100F80E40E9434
:10127000EF0A2FEF31EE44E0215030404040E1F7DB
:1012800000C00000812F0E94EF0A0E9452048AE2EF
:1012900092E00E9443048FEF94E3ACE081509040D1
:1012A000A040E1F700C00000112369F4809196028C
:1012B000882309F470CF08E00BC002E009C008E001
:1012C00007C008E005C008E003C08E2DE02E082FFF
:1012D00080919602813009F430CC2ACE1FEF91E044
:1012E0009B8761CCE02E03E0F3CFE02E04E0F0CF4B
:1012F000E02E05E0EDCFE02E06E0EACF06E0E8CFF5
:1013000007E0E6CF08E0E4CF01E0E2CF0AE0E0CF7B
:1013100009E0DECF02E0DCCF1F920F920FB60F92F2
:1013200011248F939F938091970290919802019638
:1013300090939802809397029F918F910F900FBE88
:101340000F901F9018954423A1F0FC013081FB0100
:101350002081321781F4DC011196319680E004C0BF
:101360002D919191291749F48F5F8417C9F781E076
:10137000089581E0089580E0089580E00895CF9376
:10138000C82F809197029091980223E084389207A9
:1013900010F0C13051F0809197029091980222E0B4
:1013A0008835920738F0C23029F481E080939602A4
:1013B0008FEF04C00E945F038F3F19F3CF91089510
:1013C0003F924F925F926F927F928F929F92AF92D5
:1013D000BF92CF92DF92EF92FF920F931F93CF9322
:1013E000DF93D82F062FEE24FF2410E00F2EF3E119
:1013F0005F2EF02D0F2EF5E14F2EF02D0F2EF4E184
:101400003F2EF02D0F2EF5E7AF2EF2E0BF2EF02D80
:101410000F2EF2E78F2EF2E09F2EF02D0F2EF9E720
:10142000CF2EF2E0DF2EF02D0F2EFAE86F2EF2E035
:101430007F2EF02D0E945204D53061F1D63030F469
:10144000D33061F0D43009F05CC016C0D730F1F170
:10145000D73070F1D93009F054C046C08BE392E028
:101460000E9443040F2EF1E3EF2EF02D0F2EF1E238
:10147000FF2EF02D11E145C084E492E00E94430468
:101480000F2EF2E3EF2EF02D0F2EF2E2FF2EF02DB5
:1014900012E137C08DE492E00E9443040F2EF3E383
:1014A000EF2EF02D0F2EF3E2FF2EF02D152D29C07B
:1014B00086E592E00E9443040F2EF4E3EF2EF02D18
:1014C0000F2EF4E2FF2EF02D132D1BC08FE592E0BE
:1014D0000E9443040F2EF5E3EF2EF02D0F2EF5E2C0
:1014E000FF2EF02D142D0DC085E692E00E944304DE
:1014F0000F2EF6E3EF2EF02D0F2EF6E2FF2EF02D3D
:1015000016E1812F0E94EF0A8FEF90E7A2E0815051
:101510009040A040E1F700C000008FEF0E94EF0A6A
:10152000813021F4C4010E94430403C0C5010E941C
:10153000430482E061E00E945604C6010E94430415
:10154000802F0E94BF09C82F8FEF90E7A2E0815043
:101550009040A040E1F700C00000C13321F48F2D7E
:101560000E94EF0A20C0C23321F48E2D0E94EF0AA0
:101570001AC0CF3F99F0C033B1F00E945204C301AA
:101580000E9443048FEF94E3ACE081509040A04070
:10159000E1F700C00000C053C33028F080919602EC
:1015A000882309F447CFDF91CF911F910F91FF90CE
:1015B000EF90DF90CF90BF90AF909F908F907F90F3
:1015C0006F905F904F903F90089587B3806B87BB7B
:1015D0008DB181658DB90895BE9A6E9A08958FB9BF
:1015E000779BFECF8FB108958EE48CBF83B7886060
:1015F00083BF83B78F7B83BF83B7816083BF83B78C
:101600008D7F83BF83B7846083BF789489B78260FE
:1016100089BF089583B78E7F83BF83B78D7F83BFD4
:1016200083B78B7F83BF089580E88CBF83B78064C6
:1016300083BF83B7886083BF789483B7806283BF9A
:1016400089B7816089BF83B7816083BF83B78D7F8E
:1016500083BF83B7846083BF089520E030E048EC07
:1016600052E40E943D0B20E030E040E853E40E9449
:10167000220C0E94A50B6CBF08950CD0A9C0A1D06C
:1016800040F098D030F021F45F3F19F08AC051113A
:10169000D3C08DC0AED098F39923C9F35523B1F3CD
:1016A000951B550BBB27AA2762177307840738F0D1
:1016B0009F5F5F4F220F331F441FAA1FA9F333D030
:1016C0000E2E3AF0E0E830D091505040E695001CE4
:1016D000CAF729D0FE2F27D0660F771F881FBB1FA0
:1016E000261737074807AB07B0E809F0BB0B802D7A
:1016F000BF01FF2793585F4F2AF09E3F510568F0C6
:1017000050C09AC05F3FECF3983EDCF38695779526
:101710006795B795F7959F5FC9F7880F911D9695C7
:10172000879597F90895E1E0660F771F881FBB1F23
:10173000621773078407BA0720F0621B730B840BD0
:10174000BA0BEE1F88F7E09508955BD088F09F579D
:1017500090F0B92F9927B751A0F0D1F0660F771FFD
:10176000881F991F1AF0BA95C9F712C0B13081F0DD
:1017700062D0B1E008955FC0672F782F8827B85FE7
:1017800039F0B93FCCF3869577956795B395D9F73E
:101790003EF490958095709561957F4F8F4F9F4F48
:1017A000089597F99F6780E870E060E008959FEFE3
:1017B00080EC089500240A941616170618060906E8
:1017C000089500240A9412161306140605060895B7
:1017D000092E0394000C11F4882352F0BB0F40F43F
:1017E000BF2B11F460FF04C06F5F7F4F8F4F9F4F7F
:1017F000089557FD9058440F551F59F05F3F71F001
:101800004795880F97FB991F61F09F3F79F0879567
:101810000895121613061406551FF2CF4695F1DFF0
:1018200008C0161617061806991FF1CF8695710580
:10183000610508940895E894BB2766277727CB01B4
:1018400097F908950BD0C4CFB5DF28F0BADF18F0B0
:10185000952309F0A6CFABCF1124EECFCADFA0F3BA
:10186000959FD1F3950F50E0551F629FF001729F35
:10187000BB27F00DB11D639FAA27F00DB11DAA1F54
:10188000649F6627B00DA11D661F829F2227B00DA1
:10189000A11D621F739FB00DA11D621F839FA00D2C
:1018A000611D221F749F3327A00D611D231F849F7C
:1018B000600D211D822F762F6A2F11249F575040D3
:1018C0008AF0E1F088234AF0EE0FFF1FBB1F661F6E
:1018D000771F881F91505040A9F79E3F510570F027
:1018E00060CFAACF5F3FECF3983EDCF38695779507
:1018F0006795B795F795E7959F5FC1F7FE2B880F22
:0E190000911D9695879597F90895F894FFCF5D
:10190E003738392F3435362A3132332D41303D2B8D
:10191E0057656C636F6D6520746F20736D617274A3
:10192E0000686F6D652073797374656D004C6F6719
:10193E00696E20666F720066697273742074696DC9
:10194E0065005365742041646D696E207061737318
:10195E000041646D696E20706173733A005061735B
:10196E007320536176656400536574204775657303
:10197E0074205061737300477565737420506173E2
:10198E00733A0053657373696F6E2054696D656F9A
:10199E007574004C6F67696E20626C6F636B656463
:1019AE0000506C65617365207761697420357365CD
:1019BE00630053656C656374206D6F6465203A0037
:1019CE00303A41646D696E20313A47756573740023
:1019DE0057726F6E6720696E7075742E0041646D5C
:1019EE00696E206D6F646500456E7465722050617E
:1019FE0073733A005269676874207061737300578D
:101A0E00726F6E6720506173730054726965732034
:101A1E006C6566743A004775657374206D6F646506
:101A2E0000456E74657220706173733A0057726F61
:101A3E006E67207061737300313A526F6F6D312093
:101A4E00323A526F6F6D3200333A526F6F6D3320F0
:101A5E00343A4D6F72652000333A526F6F6D3320FA
:101A6E00343A526F6F6D340057726F6E6720696E25
:101A7E0070757400313A526F6F6D34202020203211
:101A8E003A545620202000333A41697220436F6E3B
:101A9E00642E343A52455400313A536574207465BD
:101AAE006D70657261747572652000323A436F6EA7
:101ABE0074726F6C2020303A524554005365742076
:101ACE0074656D702E3A5F5F200054656D7065729F
:101ADE0061747572652053656E7400526F6F6D314F
:101AEE0020533A00526F6F6D3220533A00526F6F8F
:101AFE006D3320533A00526F6F6D3420533A0054B9
:101B0E005620533A0041697220436F6E642E205363
:101B1E003A004F4E004F464600312D4F6E20322D6B
:101B2E004F666620302D5245540057726F6E6720F7
:061B3E00696E7075740071
:00000001FF
