S01500004F6D61725F41544D45474133322E737265630D
S11300000C942A000C9447000C9447000C9447006D
S11300100C9447000C9447000C9447000C94470040
S11300200C9447000C9447000C9447000C94470030
S11300300C9447000C9447000C9447000C94470020
S11300400C9447000C9447000C9447000C94470010
S11300500C94470011241FBECFE5D8E0DEBFCDBF0E
S113006010E0A0E6B0E0E2EAF4E102C005900D92EF
S1130070A838B107D9F710E0A8E8B0E001C01D9294
S1130080A53BB107E1F70E94ED070C944F0A0C94CD
S113009000006FEF0E94C9060895CF93DF93CDB798
S11300A0DEB72A970FB6F894DEBF0FBECDBFDE01D0
S11300B01196E0E6F0E09AE001900D929150E1F79C
S11300C0FE01E60FF11D61810E94DB062A960FB640
S11300D0F894DEBF0FBECDBFDF91CF910895EF92AC
S11300E0FF920F931F93CF93DF93CDB7DEB72A9779
S11300F00FB6F894DEBF0FBECDBFE82EDE01119619
S1130100E0E6F0E08AE001900D928150E1F78E0183
S11301100F5F1F4F8AE0F82ED8016D918D018E2D4F
S11301200E94DB068FE39DE0A3E081509040A04055
S1130130E1F700C00000FA9479F72A960FB6F89414
S1130140DEBF0FBECDBFDF91CF911F910F91FF9006
S1130150EF900895EF92FF920F931F93CF93DF9345
S1130160CDB7DEB760970FB6F894DEBF0FBECDBF34
S1130170E82EDE011196EAE6F0E080E101900D92AE
S11301808150E1F78E010F5F1F4F90E1F92ED801E6
S11301906D918D018E2D0E94DB068FE39DE0A3E01F
S11301A081509040A040E1F700C00000FA9479F734
S11301B060960FB6F894DEBF0FBECDBFDF91CF912E
S11301C01F910F91FF90EF90089540E00E94180650
S11301D008950E946A060895CF93DF9300D0CDB7A7
S11301E0DEB789836A8389816A8141E00E941806A7
S11301F00F900F90DF91CF91089541E00E94C605C2
S1130200089540E00E94C6050895CF93DF93EC0162
S113021083E490E060E070E040E050E00E94180663
S113022083E490E061E070E040E050E00E94180652
S113023083E490E060E070E00E946A0681309105FA
S113024049F083E490E061E070E00E946A06813046
S1130250910529F48AE790E00E94870703C0CE0144
S11302600E94B807DF91CF91089584E460E041E0F3
S11302700E94180684E461E041E00E94180684E4C8
S113028062E041E00E94180684E463E041E00E94D9
S1130290180684E464E040E00E94180684E465E003
S11302A040E00E94180684E466E040E00E941806DC
S11302B084E467E040E00E94180684E464E00E945D
S11302C08E0584E465E00E948E0584E466E00E9465
S11302D08E0584E467E00E948E050895FF920F93D3
S11302E01F93CF93DF93CDB7DEB761970FB6F89422
S11302F0DEBF0FBECDBF00E084E460E041E00E94B9
S1130300C60584E461E041E00E94C60584E462E03D
S113031041E00E94C60584E463E041E00E94C60512
S113032084E4602F0E948E050F5F043029F78E014C
S11303300F5E1F4F94E0FF2484E4692F998B0E9481
S11303406A069989882311F4F801F0809F5F0F5F92
S11303501F4F983089F78F2D61960FB6F894DEBF42
S11303600FBECDBFDF91CF911F910F91FF900895E4
S113037083E467E041E00E94C60583EF91E00197C2
S1130380F1F700C0000083E467E040E00E94C60586
S113039083EF91E00197F1F700C000000895CF9337
S11303A0C82F82E40E9422076C2F607F82E40E949F
S11303B0060784E464E040E00E94C6050E94B80198
S11303C082E40E9422076C2F6295607F82E40E947F
S11303D0060784E464E040E00E94C6050E94B80178
S11303E0CF91089582E464E041E00E94180682E41B
S11303F065E041E00E94180682E466E041E00E9464
S1130400180682E467E041E00E94180683E467E08E
S113041041E00E94180684E463E041E00E9418066B
S113042084E464E041E00E94180684E463E040E070
S11304300E94C60588E20E94CF0189EF90E00197EF
S1130440F1F700C0000082E00E94CF0189EF90E044
S11304500197F1F700C000008EE00E94CF0189EF00
S113046090E00197F1F700C0000081E00E94CF0105
S11304700895682F82E40E94DB0684E464E041E08E
S11304800E94C6050E94B8010895CF93DF93EC0142
S113049002C00E94390289918823D9F7DF91CF9154
S11304A0089581E00E94CF010895982F91509230D1
S11304B060F4613150F4662341F0813019F4862FE1
S11304C0815804C0862F815401C080E80E94CF0166
S11304D00895CF93DF93EA010E945502CE010E9452
S11304E04502DF91CF91089583E467E041E00E94E3
S11304F0C60583EF91E00197F1F700C0000083E4A3
S113050067E040E00E94C60583EF91E00197F1F7B0
S113051000C000000895682F82E40E94DB0684E492
S113052064E040E00E94C6050E947402089582E4DB
S113053060E041E00E94180682E461E041E00E942C
S1130540180682E462E041E00E94180682E463E057
S113055041E00E94180682E464E041E00E9418062B
S113056082E465E041E00E94180682E466E041E02E
S11305700E94180682E467E041E00E94180683E4C2
S113058067E041E00E94180684E463E041E00E94D1
S1130590180684E464E041E00E94180684E463E001
S11305A040E00E94C60588E30E948B0289EF90E038
S11305B00197F1F700C0000082E00E948B0289EFEE
S11305C090E00197F1F700C000008EE00E948B02DA
S11305D089EF90E00197F1F700C0000081E00E94EC
S11305E08B0283EC99E00197F1F700C000000895B5
S11305F0682F82E40E94DB0684E464E041E00E9408
S1130600C6050E9474020895CF93DF93EC0102C0E3
S11306100E94F80289918823D9F7DF91CF91089538
S113062081E00E948B020895982F9150923060F4DB
S1130630613150F4662341F0813019F4862F8158DA
S113064004C0862F815401C080E80E948B02089563
S1130650CF93DF93EA010E941403CE010E940403A6
S1130660DF91CF91089541E00E941806089541E07A
S11306700E94C605089540E00E94C60508950E94A0
S113068091060895682F0E946A060895CF92DF921A
S1130690EF92FF92CF93DF93EC01BE01882777FDA1
S11306A08095982F0E94FC0820E030E040EA50E456
S11306B00E94880920E030EC4FE754E40E9461086E
S11306C00E94C908882777FD8095982F0E94FC080E
S11306D023E333E343EF5EE30E94FD072CE53FE8A9
S11306E042E45DE30E946108462F572F682F792F5B
S11306F0CB01BA010E94C9086B017C016A30710503
S11307001CF0643671054CF482E090E064E070E023
S11307100E941403C6010E94F802CE01C797DF911C
S1130720CF91FF90EF90DF90CF900895CF93DF9318
S11307309C019093B4008093B30040919500509134
S1130740960060919700709198004E5F5F4F6F4FD5
S11307507F4F409395005093960060939700709359
S113076098008091910090919200FA01E81BF90B96
S1130770F093B000E093AF00C0918100D09182006B
S11307802C173D07D8F480917C0090917D0065E0A2
S113079070E00E94EB09CB01880F991F860F971F09
S11307A08E179F0758F48091830090918400281736
S11307B0390720F43093840020938300C217D307B1
S11307C058F480918500909186008217930720F455
S11307D03093860020938500E091AF00F091B00043
S11307E0EB3FF10508F48FC0C217D30708F08BC0A4
S11307F080918B00882309F086C080917C009091C1
S11308007D0065E070E00E94EB09CB01880F991F21
S1130810860F971F8E179F0708F075C081E080939D
S11308208B008091950090919600A0919700B091D3
S113083098002091910030919200BC01621B730BCF
S113084070937D0060937C0080939100909392005C
S1130850A0939300B093940080918E008823A9F014
S113086010928E0080E090E020E030E0F901E5563F
S1130870FF4F7183608301962E5F3F4F8A3091054D
S1130880A8F3909389008093880080918000882346
S113089031F01092800081E080938E009CC040E093
S11308A050E0EBE9F0E020E030E02F5F3F4F828141
S11308B0938181939193480F591F29303105A8F3EF
S11308C030938900209388007093AE006093AD004C
S11308D0CB01840F951F6AE070E00E94EB097093CE
S11308E08D0060938C009B0140E050E060E67AEE5E
S11308F080E090E00E94120A3093B2002093B1008D
S113090081E080938A002091B3003091B4008091FB
S11309108100909182002817390720F580918B007F
S1130920882301F110928B00209183003091840080
S11309308091850090918600821B930B9093900088
S113094080938F0096958795820F931F90938200D2
S11309508093810090938600809385009093840017
S1130960809383008091AF009091B00029E0853C92
S1130970920728F182E192E09093820080938100B3
S113098080E092E0909386008093850090938400A9
S1130990809383008091950090919600A091970098
S11309A0B09198008093910090939200A09393004B
S11309B0B093940081E08093800010928E00809127
S11309C0B1009091B2000E94B80780918C00909180
S11309D08D000E94B807DF91CF9108951F93CF93A4
S11309E0DF939C01B901882777FD8095982F0E9499
S11309F0FC0820E030E040E85EE30E9488099B01A7
S1130A00AC010E94FD0720E030E040E85FE30E9473
S1130A10FC070E94C908DC01CB01EC018A30910576
S1130A2054F481E063E00E941403CE016AE070E0B4
S1130A300E94FF0915C0843691051CF08436910587
S1130A4091F081E063E00E941403CE016AE070E05B
S1130A500E94FF09182F862F805D0E94F802812FC3
S1130A60805D0E94F802CE01DF91CF911F9108951D
S1130A7040E00E9418060895CF93DF93EC0183E7CA
S1130A8090E00E94870784E790E00E94870785E64C
S1130A9090E00E94870780E790E00E94870783E741
S1130AA090E00E94870780E290E00E94870789E631
S1130AB090E00E94870783E790E00E9487078DE318
S1130AC090E00E948707CE010E94B807DF91CF9182
S1130AD008953E9A379A329A319A089584B190E0F3
S1130AE045B1342F20E0822B932B369A3499FECFD4
S1130AF0349A20E427B90E940501089584B190E056
S1130B0045B1342F20E0822B932B369A3499FECFB3
S1130B10349A21E427B90E94960308958234A9F0F7
S1130B20833418F4813489F505C0843421F1833683
S1130B3061F516C02BB381E090E002C0880F991FC5
S1130B406A95E2F7282B2BBB089528B381E090E047
S1130B5002C0880F991F6A95E2F7282B28BB0895D5
S1130B6025B381E090E002C0880F991F6A95E2F7EF
S1130B70282B25BB089522B381E090E002C0880FA2
S1130B80991F6A95E2F7282B22BB08958234E9F075
S1130B90833420F4813409F04AC006C0833431F12F
S1130BA0843409F044C033C02BB381E090E002C028
S1130BB0880F991F6A95E2F7413019F4282B2BBB53
S1130BC00895809582238BBB089528B381E090E03B
S1130BD002C0880F991F6A95E2F7413019F4282B57
S1130BE028BB08958095822388BB089525B381E0AE
S1130BF090E002C0880F991F6A95E2F7413019F41A
S1130C00282B25BB08958095822385BB089522B3A4
S1130C1081E090E002C0880F991F6A95E2F74130A5
S1130C2019F4282B22BB08958095822382BB089552
S1130C308234E9F0833420F4813409F04AC006C0D8
S1130C40833431F1843409F044C033C02AB381E0E1
S1130C5090E002C0880F991F6A95E2F7413019F4B9
S1130C60282B2ABB0895809582238ABB089527B335
S1130C7081E090E002C0880F991F6A95E2F7413045
S1130C8019F4282B27BB08958095822387BB0895E8
S1130C9024B381E090E002C0880F991F6A95E2F7BF
S1130CA0413019F4282B24BB08958095822384BBFA
S1130CB0089521B381E090E002C0880F991F6A95DE
S1130CC0E2F7413019F4282B21BB08958095822343
S1130CD081BB0895823461F0833418F48134F1F4D3
S1130CE005C0833439F08434C9F406C029B305C07F
S1130CF026B303C023B301C020B381E090E0062EE5
S1130D0002C0880F991F0A94E2F730E082239323EC
S1130D1002C0959587956A95E2F7089580E090E082
S1130D2008958234A9F0833418F4813489F505C018
S1130D308334C9F0843461F521C02BB381E090E0A1
S1130D4002C0880F991F6A95E2F728272BBB0895E4
S1130D5028B381E090E002C0880F991F6A95E2F7FA
S1130D60282728BB089525B381E090E002C0880FAE
S1130D70991F6A95E2F7282725BB089522B381E0DD
S1130D8090E002C0880F991F6A95E2F7282722BBDA
S1130D900895823461F0833418F4813459F405C021
S1130DA0833429F0843431F404C06ABB089567BBEA
S1130DB0089561BB0895823461F0833418F481345A
S1130DC069F405C0833439F0843441F406C06BBB44
S1130DD0089568BB089565BB089562BB0895823485
S1130DE061F0833418F4813471F405C0833439F02C
S1130DF0843449F406C089B305C086B303C083B301
S1130E0001C080B3089580E090E00895823471F0C9
S1130E10833418F48134A9F405C0833459F084343C
S1130E2081F40CC08BB3862B8BBB089588B3862BBF
S1130E3088BB089585B3862B85BB089582B3862B22
S1130E4082BB0895833441F0843451F0823459F4E0
S1130E5088B38F7088BB089585B38F7085BB089560
S1130E6082B38F7082BB08958EBB9FBB6DBBE29A29
S1130E70E29AE299FECF08958EBB1FBAE09A8DB331
S1130E8008958EE490E09BBD8ABD83B7816083BFE3
S1130E9083B7826083BF83B7816083BF83B78D7F4D
S1130EA083BF83B7846083BF089583B7816083BFA2
S1130EB083B7826083BF83B7806883BF83B780644E
S1130EC083BF80E490E09BBD8ABD8EB581608EBDFA
S1130ED083B78D7F83BF83B78B7F83BF089520E063
S1130EE030E048EC52E40E94610820E030E040E841
S1130EF053E40E9488090E94CE086CBF089588E9D3
S1130F008AB986E080BD10BC83E389B908955D9BEE
S1130F10FECF8CB908955F9BFECF8CB108950F93DB
S1130F201F93CF93DF938C01C0E0D0E0F801808160
S1130F300E5F1F4F0E9487072196C830D105B1F775
S1130F40DF91CF911F910F910895CF93DF93EC011F
S1130F500E948B0788831982FE01229680819181E9
S1130F6083329105A9F711821082DF91CF91089500
S1130F700F931F93CF93DF93CDB7DEB72A970FB6A6
S1130F80F894DEBF0FBECDBFFE01319600E010E045
S1130F902AE030E0B9010E94FF09805D81930F5F70
S1130FA01F4FCB010097B1F701501040E1E0F0E092
S1130FB0EC0FFD1FE00FF11F80810E9487070115D0
S1130FC0110591F72A960FB6F894DEBF0FBECDBF78
S1130FD0DF91CF911F910F910895D09A91E08BB337
S1130FE089278BBB2FE33DE043E021503040404054
S1130FF0E1F700C00000F3CF5058BB27AA270ED05A
S11310004DC13ED130F043D120F031F49F3F11F473
S11310101EF433C10EF4E095E7FB29C1E92F4FD14B
S113102080F3BA17620773078407950718F071F401
S11310309EF567C10EF4E0950B2EBA2FA02D0B017F
S1131040B90190010C01CA01A0011124FF27591B09
S113105099F0593F50F4503E68F11A16F040A22F0F
S1131060232F342F4427585FF3CF46953795279580
S1131070A795F0405395C9F77EF41F16BA0B620B7F
S1131080730B840BBAF09150A1F0FF0FBB1F661FC6
S1131090771F881FC2F70EC0BA0F621F731F841F09
S11310A048F4879577956795B795F7959E3F08F02F
S11310B0B3CF9395880F08F09927EE0F97958795EE
S11310C008950CD0EBC0E3D040F0DAD030F021F436
S11310D05F3F19F0CCC0511115C1CFC0F0D098F3C7
S11310E09923C9F35523B1F3951B550BBB27AA27A5
S11310F062177307840738F09F5F5F4F220F331F17
S1131100441FAA1FA9F333D00E2E3AF0E0E830D0E2
S113111091505040E695001CCAF729D0FE2F27D0E5
S1131120660F771F881FBB1F261737074807AB07B3
S1131130B0E809F0BB0B802DBF01FF2793585F4F28
S11311402AF09E3F510568F092C0DCC05F3FECF38B
S1131150983EDCF3869577956795B795F7959F5FED
S1131160C9F7880F911D9695879597F90895E1E041
S1131170660F771F881FBB1F621773078407BA07A0
S113118020F0621B730B840BBA0BEE1F88F7E095FB
S1131190089504D06894B111B5C0089598D088F02A
S11311A09F5790F0B92F9927B751A0F0D1F0660F4F
S11311B0771F881F991F1AF0BA95C9F712C0B1306A
S11311C081F09FD0B1E008959CC0672F782F8827C5
S11311D0B85F39F0B93FCCF3869577956795B395A9
S11311E0D9F73EF490958095709561957F4F8F4F18
S11311F09F4F0895E89409C097FB3EF4909580951D
S1131200709561957F4F8F4F9F4F9923A9F0F92FC8
S113121096E9BB279395F695879577956795B79546
S1131220F111F8CFFAF4BB0F11F460FF1BC06F5F2C
S11312307F4F8F4F9F4F16C0882311F096E911C03E
S1131240772321F09EE8872F762F05C0662371F05F
S113125096E8862F70E060E02AF09A95660F771F73
S1131260881FDAF7880F9695879597F9089597F967
S11312709F6780E870E060E008959FEF80EC089538
S113128000240A9416161706180609060895002461
S11312900A9412161306140605060895092E0394DB
S11312A0000C11F4882352F0BB0F40F4BF2B11F44F
S11312B060FF04C06F5F7F4F8F4F9F4F089557FDAE
S11312C09058440F551F59F05F3F71F04795880FB0
S11312D097FB991F61F09F3F79F087950895121647
S11312E013061406551FF2CF4695F1DF08C01616F3
S11312F017061806991FF1CF8695710561050894A4
S11313000895E894BB2766277727CB0197F90895BA
S11313100BD0C4CFB5DF28F0BADF18F0952309F05D
S1131320A6CFABCF1124EECFCADFA0F3959FD1F3A4
S1131330950F50E0551F629FF001729FBB27F00D7F
S1131340B11D639FAA27F00DB11DAA1F649F6627D4
S1131350B00DA11D661F829F2227B00DA11D621F23
S1131360739FB00DA11D621F839FA00D611D221FDD
S1131370749F3327A00D611D231F849F600D211DC1
S1131380822F762F6A2F11249F5750408AF0E1F064
S113139088234AF0EE0FFF1FBB1F661F771F881FAD
S11313A091505040A9F79E3F510570F060CFAACFED
S11313B05F3FECF3983EDCF3869577956795B79598
S11313C0F795E7959F5FC1F7FE2B880F911D9695C2
S11313D0879597F90895AA1BBB1B51E107C0AA1F63
S11313E0BB1FA617B70710F0A61BB70B881F991FC2
S11313F05A95A9F780959095BC01CD01089597FB66
S1131400092E07260AD077FD04D0E5DF06D0002098
S11314101AF4709561957F4F0895F6F7909581952C
S11314209F4F089597FB092E05260ED057FD04D033
S113143014D00AD0001C38F450954095309521956D
S11314403F4F4F4F5F4F0895F6F7909580957095F5
S113145061957F4F8F4F9F4F0895A1E21A2EAA1BCB
S1131460BB1BFD010DC0AA1FBB1FEE1FFF1FA21750
S1131470B307E407F50720F0A21BB30BE40BF50B4D
S1131480661F771F881F991F1A9469F760957095D6
S1131490809590959B01AC01BD01CF010895F8940E
S10514A0FFCF78
S11314A23F065B4F666D7D477F6F3F065B4F666D00
S11314B27D477F6F777F393F7971210058020100A0
S10B14C2011202000200020005
S9030000FC
