:100000000C9434000C94E8040C9451000C945100AE
:100010000C9451000C9451000C9451000C9451001C
:100020000C9451000C9451000C9451000C9451000C
:100030000C9451000C9451000C9451000C945100FC
:100040000C9451000C9451000C9451000C945100EC
:100050000C9451000C9451000C9451000C945100DC
:100060000C9451000C94510011241FBECFEFD8E026
:10007000DEBFCDBF11E0A0E0B1E0E2E6FDE002C0EE
:1000800005900D92AA31B107D9F711E0AAE1B1E0CC
:1000900001C01D92AB31B107E1F70E94F7040C9447
:1000A000AF060C9400006FEF0E9410020895CF93EA
:1000B000DF93CDB7DEB72A970FB6F894DEBF0FBE39
:1000C000CDBFDE011196E0E0F1E09AE001900D92E3
:1000D0009150E1F7FE01E60FF11D61810E941A02C5
:1000E0002A960FB6F894DEBF0FBECDBFDF91CF9139
:1000F0000895EF92FF920F931F93CF93DF93CDB7A5
:10010000DEB72A970FB6F894DEBF0FBECDBFE82E3C
:10011000DE011196E0E0F1E08AE001900D9281505D
:10012000E1F78E010F5F1F4F8AE0F82ED8016D9125
:100130008D018E2D0E941A028FE39DE0A3E0815075
:100140009040A040E1F700C00000FA9479F72A96A9
:100150000FB6F894DEBF0FBECDBFDF91CF911F91D8
:100160000F91FF90EF900895EF92FF920F931F93DE
:10017000CF93DF93CDB7DEB760970FB6F894DEBFAD
:100180000FBECDBFE82EDE011196EAE0F1E080E17E
:1001900001900D928150E1F78E010F5F1F4F90E1AA
:1001A000F92ED8016D918D018E2D0E941A028FE3D8
:1001B0009DE0A3E081509040A040E1F700C0000026
:1001C000FA9479F760960FB6F894DEBF0FBECDBFF4
:1001D000DF91CF911F910F91FF90EF90089585E2ED
:1001E00080937C00EAE7F0E08081816080838081F9
:1001F00082608083808180688083089580917A0006
:10020000806480937A0080917A0084FDFCCF809195
:100210007A00806180937A008091780080917900E3
:10022000089540E00E94910108950E94CA01089536
:10023000CF93DF9300D0CDB7DEB789836A838981FE
:100240006A8141E00E9491010F900F90DF91CF9160
:10025000089541E00E945801089540E00E9458012D
:1002600008958434D1F0833669F0823401F525B1E4
:1002700081E090E002C0880F991F6A95E2F7282B71
:1002800025B9089528B181E090E002C0880F991F38
:100290006A95E2F7282B28B908952BB181E090E008
:1002A00002C0880F991F6A95E2F7282B2BB9089591
:1002B0008334A9F0843421F1823491F525B181E0B1
:1002C00090E002C0880F991F6A95E2F7413019F457
:1002D000282B25B908958095822385B9089528B1E2
:1002E00081E090E002C0880F991F6A95E2F74130E3
:1002F00019F4282B28B908958095822388B9089588
:100300002BB181E090E002C0880F991F6A95E2F757
:10031000413019F4282B2BB90895809582238BB98D
:1003200008958334A9F0843421F1823491F524B105
:1003300081E090E002C0880F991F6A95E2F7413092
:1003400019F4282B24B908958095822384B908953F
:1003500027B181E090E002C0880F991F6A95E2F70B
:10036000413019F4282B27B908958095822387B945
:1003700008952AB181E090E002C0880F991F6A9524
:10038000E2F7413019F4282B2AB908958095822389
:100390008AB90895833431F0843431F08234B1F471
:1003A00023B103C026B101C029B181E090E0062E3F
:1003B00002C0880F991F0A94E2F730E0822393234A
:1003C00002C0959587956A95E2F7089580E090E0E0
:1003D0000895833479F08434C1F0823401F525B175
:1003E00081E090E002C0880F991F6A95E2F7282704
:1003F00025B9089528B181E090E002C0880F991FC7
:100400006A95E2F7282728B908952BB181E090E09A
:1004100002C0880F991F6A95E2F728272BB9089523
:10042000833421F0843421F0823419F464B90895BE
:100430006AB90895833431F0843431F0823429F478
:1004400065B9089568B908956BB90895833431F09A
:10045000843431F0823431F483B103C086B101C0F9
:1004600089B1089580E090E00895833441F08434A8
:1004700051F0823459F485B1862B85B9089588B13D
:10048000862B88B908958BB1862B8BB90895833458
:1004900041F0843451F0823459F485B18F7085B9BC
:1004A000089588B18F7088B908958BB18F708BB91A
:1004B000089581BD92BD60BDFA9AF99AF999FECF6F
:1004C000089581BD12BCF89A80B5089584E460E077
:1004D00041E00E94910184E461E041E00E949101C9
:1004E00084E462E041E00E94910184E463E041E041
:1004F0000E94910184E464E040E00E94910184E460
:1005000065E040E00E94910184E466E040E00E94E2
:10051000910184E467E040E00E94910184E464E09A
:100520000E94310184E465E00E94310184E466E0C8
:100530000E94310184E467E00E9431010895FF9236
:100540000F931F93CF93DF93CDB7DEB761970FB6AD
:10055000F894DEBF0FBECDBF00E084E460E041E070
:100560000E94580184E461E041E00E94580184E463
:1005700062E041E00E94580184E463E041E00E94AF
:10058000580184E4602F0E9431010F5F043029F785
:100590008E010F5E1F4F94E0FF2484E4692F998B36
:1005A0000E94CA019989882311F4F801F0809F5FA5
:1005B0000F5F1F4F983089F78F2D61960FB6F89413
:1005C000DEBF0FBECDBFDF91CF911F910F91FF9086
:1005D000089584E462E041E00E94580183EF91E0D5
:1005E0000197F1F700C0000084E462E040E00E945F
:1005F000580183EF91E00197F1F700C000000895E2
:10060000CF93C82F82E40E9447026C2F607F82E460
:100610000E94350284E464E040E00E9458010E9498
:10062000E90282E40E9447026C2F6295607F82E4B7
:100630000E94350284E464E040E00E9458010E9478
:10064000E902CF91089582E464E041E00E949101C3
:1006500082E465E041E00E94910182E466E041E0CD
:100660000E94910182E467E041E00E94910184E4EC
:1006700062E041E00E94910184E463E041E00E9475
:10068000910184E464E041E00E94910184E463E02C
:1006900040E00E94580188E20E94000389EF90E048
:1006A0000197F1F700C0000082E00E94000389EF8B
:1006B00090E00197F1F700C000008EE00E94000377
:1006C00089EF90E00197F1F700C0000081E00E94FF
:1006D00000030895682F82E40E941A0284E464E013
:1006E00041E00E9458010E94E9020895CF93DF93F0
:1006F000EC0102C00E946A0389918823D9F7DF9137
:10070000CF91089581E00E9400030895982F9150A1
:10071000923060F4613150F4662341F0813019F475
:10072000862F815804C0862F815401C080E80E9422
:1007300000030895CF93DF93EA010E948603CE0160
:100740000E947603DF91CF91089584E462E041E056
:100750000E94580183EF91E00197F1F700C000007B
:1007600084E462E040E00E94580183EF91E0019749
:10077000F1F700C000000895682F82E40E941A0279
:1007800084E464E040E00E9458010E94A5030895BB
:1007900082E460E041E00E94910182E461E041E096
:1007A0000E94910182E462E041E00E94910182E4B2
:1007B00063E041E00E94910182E464E041E00E9434
:1007C000910182E465E041E00E94910182E466E0EB
:1007D00041E00E94910182E467E041E00E949101C2
:1007E00084E462E041E00E94910184E463E041E03E
:1007F0000E94910184E464E041E00E94910184E45C
:1008000063E040E00E94580188E30E94BC0389EF46
:1008100090E00197F1F700C0000082E00E94BC0365
:1008200089EF90E00197F1F700C000008EE00E9490
:10083000BC0389EF90E00197F1F700C0000081E070
:100840000E94BC0383EC99E00197F1F700C000001F
:100850000895682F82E40E941A0284E464E041E073
:100860000E9458010E94A5030895CF93DF93EC01E5
:1008700002C00E94290489918823D9F7DF91CF9182
:10088000089581E00E94BC030895982F9150923002
:1008900060F4613150F4662341F0813019F4862F01
:1008A000815804C0862F815401C080E80E94BC0397
:1008B0000895CF93DF93EA010E944504CE010E9480
:1008C0003504DF91CF91089541E00E949101089590
:1008D00041E00E945801089540E00E9458010895A7
:1008E0000E94E9010895682F0E94CA0108958EE4CC
:1008F00090E09093890080938800E0E8F0E08081A8
:1009000081608083808182608083E1E8F0E0808183
:100910008160808380818D7F8083808184608083FB
:100920000895E0E8F0E080818160808380818260CA
:10093000808380818068808380818064808380E47C
:1009400090E09093890080938800E1E8F0E0808156
:100950008160808380818D7F808380818B7F808395
:10096000089520E030E048EC52E40E94670520E062
:1009700030E040E853E40E944C060E94CF05DC01C1
:10098000CB01909389008093880008959093C500CF
:100990008093C40088E18093C1008AE88093C200FC
:1009A00008959091C00095FFFCCF8093C6000895F4
:1009B0008091C00087FDFCCF8091C6000895F89417
:1009C000E89AE9E6F0E08081836080837894089576
:1009D0001F920F920FB60F9211248F9381E0809394
:1009E0001A018F910F900FBE0F901F90189584E4FD
:1009F00060E00E94110183E460E00E94640483E4EB
:100A000061E00E94640483E462E00E94640483E481
:100A100063E00E9464040E94DF04CFE080911A0129
:100A20008823C9F583E460E00E9468042FE936E872
:100A300041E0215030404040E1F700C0000018B8CC
:100A400083E461E00E9468048FE996E8A1E08150A8
:100A50009040A040E1F700C0000018B883E462E0D5
:100A60000E9468042FE936E841E0215030404040C0
:100A7000E1F700C0000018B883E463E00E94680456
:100A80008FE996E8A1E081509040A040E1F700C0D6
:100A9000000018B8C3CF813009F685E0C8B92FE946
:100AA00036E841E0215030404040E1F700C000000E
:100AB00018B82FE936E841E0215030404040E1F7D6
:100AC00000C00000815051F710921A01A7CF0CD03E
:100AD000A9C0A1D040F098D030F021F45F3F19F0C8
:100AE0008AC05111D3C08DC0AED098F39923C9F3F9
:100AF0005523B1F3951B550BBB27AA276217730724
:100B0000840738F09F5F5F4F220F331F441FAA1FD7
:100B1000A9F333D00E2E3AF0E0E830D09150504097
:100B2000E695001CCAF729D0FE2F27D0660F771F45
:100B3000881FBB1F261737074807AB07B0E809F027
:100B4000BB0B802DBF01FF2793585F4F2AF09E3FBC
:100B5000510568F050C09AC05F3FECF3983EDCF35B
:100B6000869577956795B795F7959F5FC9F7880F35
:100B7000911D9695879597F90895E1E0660F771F87
:100B8000881FBB1F621773078407BA0720F0621B18
:100B9000730B840BBA0BEE1F88F7E09508955BD0BA
:100BA00088F09F5790F0B92F9927B751A0F0D1F056
:100BB000660F771F881F991F1AF0BA95C9F712C0E0
:100BC000B13081F062D0B1E008955FC0672F782F17
:100BD0008827B85F39F0B93FCCF38695779567954C
:100BE000B395D9F73EF490958095709561957F4FB8
:100BF0008F4F9F4F089597F99F6780E870E060E0FE
:100C000008959FEF80EC089500240A9416161706A5
:100C100018060906089500240A94121613061406ED
:100C200005060895092E0394000C11F4882352F050
:100C3000BB0F40F4BF2B11F460FF04C06F5F7F4F08
:100C40008F4F9F4F089557FD9058440F551F59F0EF
:100C50005F3F71F04795880F97FB991F61F09F3FA9
:100C600079F087950895121613061406551FF2CFD2
:100C70004695F1DF08C0161617061806991FF1CF22
:100C800086957105610508940895E894BB27662749
:100C90007727CB0197F908950BD0C4CFB5DF28F0A3
:100CA000BADF18F0952309F0A6CFABCF1124EECF11
:100CB000CADFA0F3959FD1F3950F50E0551F629FB7
:100CC000F001729FBB27F00DB11D639FAA27F00DA5
:100CD000B11DAA1F649F6627B00DA11D661F829FCC
:100CE0002227B00DA11D621F739FB00DA11D621FB1
:100CF000839FA00D611D221F749F3327A00D611DCE
:100D0000231F849F600D211D822F762F6A2F1124AF
:100D10009F5750408AF0E1F088234AF0EE0FFF1F02
:100D2000BB1F661F771F881F91505040A9F79E3F39
:100D3000510570F060CFAACF5F3FECF3983EDCF333
:100D4000869577956795B795F795E7959F5FC1F776
:100D5000FE2B880F911D9695879597F90895F89425
:020D6000FFCFC3
:100D62003F065B4F666D7D477F6F3F065B4F666D4B
:0A0D72007D477F6F777F393F79716D
:00000001FF
