S01500004F6D61725F41544D45474133322E737265630D
S11300000C942A000C94CE080C9447000C944700DE
S11300100C9447000C9447000C9447000C94470040
S11300200C9447000C9447000C9447000C94470030
S11300300C9447000C940B090C9447000C94470053
S11300400C9447000C9447000C9447000C94470010
S11300500C94470011241FBECFE5D8E0DEBFCDBF0E
S113006010E0A0E6B0E0E6E6F8E102C005900D92EB
S1130070AA3BB107D9F710E0AAEBB0E001C01D928A
S1130080AC3BB107E1F70E940C080C94310C0C94C2
S113009000006FEF0E94CD060895CF93DF93CDB794
S11300A0DEB72A970FB6F894DEBF0FBECDBFDE01D0
S11300B01196E0E6F0E09AE001900D929150E1F79C
S11300C0FE01E60FF11D61810E94E1062A960FB63A
S11300D0F894DEBF0FBECDBFDF91CF910895DF92BC
S11300E0EF92FF920F931F93CF93DF93CDB7DEB7B9
S11300F02A970FB6F894DEBF0FBECDBFD82EDE010F
S11301001196E0E6F0E08AE001900D928150E1F76B
S11301108E010F5F1F4F0F2EFBE0EF2EFF24F02DFB
S1130120EC0EFD1ED8016D918D018D2D0E94E1060E
S11301308FE39DE0A3E081509040A040E1F700C030
S113014000000E151F0571F72A960FB6F894DEBF4E
S11301500FBECDBFDF91CF911F910F91FF90EF9014
S1130160DF900895DF92EF92FF920F931F93CF9346
S1130170DF93CDB7DEB760970FB6F894DEBF0FBE3E
S1130180CDBFD82EDE011196EAE6F0E080E10190C1
S11301900D928150E1F78E010F5F1F4F0F2EF1E199
S11301A0EF2EFF24F02DEC0EFD1ED8016D918D0174
S11301B08D2D0E94E1068FE39DE0A3E081509040E5
S11301C0A040E1F700C000000E151F0571F760960E
S11301D00FB6F894DEBF0FBECDBFDF91CF911F9154
S11301E00F91FF90EF90DF90089540E00E94B105D9
S11301F008950E9434060895CF93DF9300D0CDB7BD
S1130200DEB789836A8389816A8141E00E94B105EE
S11302100F900F90DF91CF91089541E00E942E0539
S1130220089540E00E942E05089584E460E041E0D2
S11302300E94B10584E461E041E00E94B10584E4D8
S113024062E041E00E94B10584E463E041E00E9481
S1130250B10584E464E040E00E94B10584E465E013
S113026040E00E94B10584E466E040E00E94B105EC
S113027084E467E040E00E94B10584E464E00E9405
S1130280EE0484E465E00E94EE0484E466E00E94E7
S1130290EE0484E467E00E94EE040895EF92FF9276
S11302A00F931F93CF93DF93CDB7DEB760970FB64D
S11302B0F894DEBF0FBECDBFDE011196EAE7F0E091
S11302C080E101900D928150E1F710E084E460E058
S11302D041E00E942E0584E461E041E00E942E0585
S11302E084E462E041E00E942E0584E463E041E09E
S11302F00E942E0584E4612F0E94EE041F5F1430D7
S113030029F70F2EF1E1EF2EFF24F02DEC0EFD1E48
S113031000E084E4612F0E943406882311F4F7017D
S113032000811F5F0894E11CF11C183091F7802FA5
S113033060960FB6F894DEBF0FBECDBFDF91CF91AC
S11303401F910F91FF90EF90089583E467E041E0DF
S11303500E942E0583EF91E00197F1F700C00000A1
S113036083E467E040E00E942E0583EF91E001976B
S1130370F1F700C000000895CF93C82F82E40E94D3
S113038028076C2F607F82E40E940C0784E464E0F9
S113039040E00E942E050E94A50182E40E942807E5
S11303A06C2F6295607F82E40E940C0784E464E011
S11303B040E00E942E050E94A501CF91089582E499
S11303C064E041E00E94B10582E465E041E00E94FE
S11303D0B10582E466E041E00E94B10582E467E091
S11303E041E00E94B10583E467E041E00E94B10569
S11303F084E463E041E00E94B10584E464E041E008
S11304000E94B10584E463E040E00E942E0588E286
S11304100E94BC0189EF90E00197F1F700C0000051
S113042082E00E94BC0189EF90E00197F1F700C0DF
S113043000008EE00E94BC0189EF90E00197F1F783
S113044000C0000081E00E94BC010895682F82E48E
S11304500E94E10684E464E041E00E942E050E94CB
S1130460A5010895CF93DF93EC018881882331F0AF
S113047021960E94260289918823D9F7DF91CF9192
S1130480089581E00E94BC010895282F2150223054
S113049070F4613170F4662371F0813019F4962F91
S11304A091580AC0823041F4962F915405C090E8C7
S11304B003C090E801C090E8892F0E94BC01089510
S11304C0CF93DF93EA010E944502CE010E943202DB
S11304D0DF91CF91089583E467E041E00E942E0507
S11304E083EF91E00197F1F700C0000083E467E037
S11304F040E00E942E0583EF91E00197F1F700C0E0
S113050000000895682F82E40E94E10684E464E018
S113051040E00E942E050E946B02089582E460E090
S113052041E00E94B10582E461E041E00E94B1052E
S113053082E462E041E00E94B10582E463E041E0CC
S11305400E94B10582E464E041E00E94B10582E4C6
S113055065E041E00E94B10582E466E041E00E946A
S1130560B10582E467E041E00E94B10583E467E0FD
S113057041E00E94B10584E463E041E00E94B105DA
S113058084E464E041E00E94B10584E463E040E077
S11305900E942E0588E30E94820289EF90E0019771
S11305A0F1F700C0000082E00E94820289EF90E02F
S11305B00197F1F700C000008EE00E94820289EFEB
S11305C090E00197F1F700C0000081E00E948202F0
S11305D083EC99E00197F1F700C000000895682FBB
S11305E082E40E94E10684E464E041E00E942E0576
S11305F00E946B020895CF93DF93EC0188818823D6
S113060031F021960E94EF0289918823D9F7DF9176
S1130610CF91089581E00E9482020895282F2150ED
S1130620223070F4613170F4662371F0813019F472
S1130630962F91580AC0823041F4962F915405C0E8
S113064090E803C090E801C090E8892F0E948202DC
S11306500895CF93DF93EA010E940E03CE010E9416
S1130660FB02DF91CF91089541E00E94B105089506
S113067041E00E942E05089540E00E942E05089551
S11306800E948D060895682F0E94340608950F93E2
S11306901F93CF93DF938C01B801882777FD809552
S11306A0982F0E941B0B20E030E040EA50E40E94A7
S11306B0A70B20E030EC4FE754E40E94800A0E942C
S11306C0E80A882777FD8095982F0E941B0B23E367
S11306D033E343EF5EE30E941C0A2CE53FE842E467
S11306E05DE30E94800A462F572F682F792FCB0194
S11306F0BA010E94E80ADC01CB01EC018A309105C1
S113070054F482E090E064E070E00E940E03CE01B5
S11307100E94EF020CC0843691054CF482E090E014
S113072064E070E00E940E03CE010E94EF02C80153
S1130730C797DF91CF911F910F9108951F93CF9386
S1130740DF939C01B901882777FD8095982F0E943B
S11307501B0B20E030E040E85EE30E94A70B9B0106
S1130760AC010E941C0A20E030E040E85FE30E94F4
S11307701B0A0E94E80ADC01CB01EC018A309105D6
S11307806CF481E063E00E940E03CE016AE070E045
S11307900E940A0C805D0E94EF022BC084369105F2
S11307A09CF481E063E00E940E03CE016AE070E0F5
S11307B00E940A0C182F862F805D0E94EF02812F61
S11307C0805D0E94EF0215C08536910594F081E0AA
S11307D063E00E940E03CE016AE070E00E940A0CFE
S11307E0182F862F805D0E94EF02812F805D0E946A
S11307F0EF028C2F9D2FDF91CF911F91089540E040
S11308000E94B1050895CF93DF93EC0183E790E054
S11308100E948E0784E790E00E948E0785E690E0B0
S11308200E948E0780E790E00E948E0783E790E0A5
S11308300E948E0780E290E00E948E0789E690E095
S11308400E948E0783E790E00E948E078DE390E07C
S11308500E948E07CE010E94CB07DF91CF910895AD
S11308603E9A379A329A319A089524B130E045B1CC
S1130870942F80E0822B932B369A3499FECF349AAE
S113088027B1203419F0213451F405C00E944703E4
S113089081E487B908950E949E0380E487B908958E
S11308A0CF93DF93C4B1D0E025B1922F80E0C82B61
S11308B0D92B369A3499FECF349A87B1803421F0FB
S11308C0813409F088C058C08DE090E00E948E0702
S11308D082E490E00E948E078CE690E00E948E07EE
S11308E08FE690E00E948E078FE690E00E948E07CC
S11308F084E690E00E948E0780E290E00E948E07DA
S113090080E790E00E948E0782E790E00E948E07C5
S113091085E690E00E948E0783E790E00E948E07B0
S113092083E790E00E948E0785E790E00E948E079F
S113093082E790E00E948E0785E690E00E948E0791
S113094080E290E00E948E0789E690E00E948E0784
S113095083E790E00E948E0780E290E00E948E0779
S11309608DE390E00E948E07CE010E9447030E940F
S1130970CB0781E487B92FC08DE090E00E948E07F9
S113098084E590E00E948E0785E690E00E948E0741
S11309908DE690E00E948E0780E790E00E948E072B
S11309A080E290E00E948E0789E690E00E948E0724
S11309B083E790E00E948E0780E290E00E948E0719
S11309C08DE390E00E948E07CE010E949E030E9458
S11309D0CB0780E487B9DF91CF9108958234B9F0D1
S11309E0833418F48134C9F505C0843451F1833655
S11309F0A1F51AC02BB381E090E0AC0102C0440F12
S1130A00551F6A95E2F7BA01622B6BBB089528B3B0
S1130A1081E090E0AC0102C0440F551F6A95E2F7F3
S1130A20BA01622B68BB089525B381E090E0AC0164
S1130A3002C0440F551F6A95E2F7BA01622B65BBE9
S1130A40089522B381E090E0AC0102C0440F551F29
S1130A506A95E2F7BA01622B62BB0895823451F1C0
S1130A60833420F4813409F07BC007C0833409F453
S1130A703EC0843409F074C057C0413069F42BB3CC
S1130A8081E090E0AC0102C0440F551F6A95E2F783
S1130A90BA01622B6BBB08952BB381E090E0AC01EB
S1130AA002C0440F551F6A95E2F7BA0160956223AC
S1130AB06BBB0895413069F428B381E090E0AC0148
S1130AC002C0440F551F6A95E2F7BA01622B68BB56
S1130AD0089528B381E090E0AC0102C0440F551F93
S1130AE06A95E2F7BA016095622368BB08954130C4
S1130AF069F425B381E090E0AC0102C0440F551FB6
S1130B006A95E2F7BA01622B65BB089525B381E0CB
S1130B1090E0AC0102C0440F551F6A95E2F7BA0198
S1130B206095622365BB0895413069F422B381E086
S1130B3090E0AC0102C0440F551F6A95E2F7BA0178
S1130B40622B62BB089522B381E090E0AC0102C045
S1130B50440F551F6A95E2F7BA016095622362BBA0
S1130B600895823451F1833420F4813409F07BC038
S1130B7007C0833409F43EC0843409F074C057C0FC
S1130B80413069F42AB381E090E0AC0102C0440F23
S1130B90551F6A95E2F7BA01622B6ABB08952AB31E
S1130BA081E090E0AC0102C0440F551F6A95E2F762
S1130BB0BA01609562236ABB0895413069F427B392
S1130BC081E090E0AC0102C0440F551F6A95E2F742
S1130BD0BA01622B67BB089527B381E090E0AC01B2
S1130BE002C0440F551F6A95E2F7BA01609562236B
S1130BF067BB0895413069F424B381E090E0AC010F
S1130C0002C0440F551F6A95E2F7BA01622B64BB18
S1130C10089524B381E090E0AC0102C0440F551F55
S1130C206A95E2F7BA016095622364BB0895413086
S1130C3069F421B381E090E0AC0102C0440F551F78
S1130C406A95E2F7BA01622B61BB089521B381E092
S1130C5090E0AC0102C0440F551F6A95E2F7BA0157
S1130C606095622361BB08958234F1F0833420F4EB
S1130C70813409F04FC006C0833441F1843409F053
S1130C8049C036C029B381E090E0062E02C0880F27
S1130C90991F0A94E2F730E08223932302C09595CA
S1130CA087956A95E2F7089526B381E090E0062ED1
S1130CB002C0880F991F0A94E2F730E0822393233D
S1130CC002C0959587956A95E2F7089523B381E06C
S1130CD090E0062E02C0880F991F0A94E2F730E0D4
S1130CE08223932302C0959587956A95E2F7089528
S1130CF020B381E090E0062E02C0880F991F0A9469
S1130D00E2F730E08223932302C0959587956A9594
S1130D10E2F7089580E090E008958234B9F08334D6
S1130D2018F48134C9F505C08334E9F08434A1F59D
S1130D3027C02BB381E090E0AC0102C0440F551FE3
S1130D406A95E2F7BA0162276BBB089528B381E084
S1130D5090E0AC0102C0440F551F6A95E2F7BA0156
S1130D60622768BB089525B381E090E0AC0102C01E
S1130D70440F551F6A95E2F7BA01622765BB0895CF
S1130D8022B381E090E0AC0102C0440F551F6A9584
S1130D90E2F7BA01622762BB0895823461F08334BA
S1130DA018F4813469F405C0833439F0843441F48F
S1130DB006C06ABB089567BB089567BB089561BB0D
S1130DC00895823461F0833418F4813469F405C0E1
S1130DD0833439F0843441F406C06BBB089568BB96
S1130DE0089565BB089562BB0895823461F083342D
S1130DF018F4813471F405C0833439F0843449F42F
S1130E0006C089B3089586B3089583B3089580B363
S1130E10089580E090E00895823471F0833418F4EA
S1130E208134A9F405C0833459F0843481F40CC0AE
S1130E308BB3682B6BBB089588B3682B68BB08958C
S1130E4085B3682B65BB089582B3682B62BB089594
S1130E50833441F0843451F0823459F488B38F7070
S1130E6088BB089585B38F7085BB089582B38F7056
S1130E7082BB08958EBB9FBB6DBBE29AE29AE29956
S1130E80FECF08958EBB1FBAE09A8DB308958EE409
S1130E9090E09BBD8ABD83B7816083BF83B78260C6
S1130EA083BF83B7816083BF83B78D7F83BF83B7DD
S1130EB0846083BF089583B7816083BF83B78260F2
S1130EC083BF83B7806883BF83B7806483BF80E4B4
S1130ED090E09BBD8ABD8EB581608EBD83B78D7F4A
S1130EE083BF83B78B7F83BF089520E030E048EC55
S1130EF052E40E94800A20E030E040E853E40E947B
S1130F00A70B0E94ED0A6CBF089588E98AB986E0B0
S1130F1080BD81E080BD8FE989B908955D9BFECFD6
S1130F208CB908955F9BFECF8CB108950F931F93E6
S1130F30CF93DF93C82FD92F08E010E08881229641
S1130F400E948E0701501040C9F7DF91CF911F9185
S1130F500F9108950F931F93CF93DF938C010E94F9
S1130F60920790E0F801918380838332910559F0D0
S1130F70E80122968E010E94920790E0899399934A
S1130F8083329105B9F7F80111821082DF91CF9174
S1130F901F910F910895EF92FF920F931F93CF9398
S1130FA0DF93CDB7DEB72A970FB6F894DEBF0FBE36
S1130FB0CDBFFE013196EE24FF242AE030E0B901D2
S1130FC00E940A0C805D81930894E11CF11C862F19
S1130FD0972F0097A1F7E114F10489F001E010E0E4
S1130FE00C0F1D1F0E0D1F1D0894E108F108F801D8
S1130FF082918F010E948E07E114F104A9F72A96C9
S11310000FB6F894DEBF0FBECDBFDF91CF911F9115
S11310100F91FF90EF9008950E948E0283E462E0A6
S11310200E9434030E9485078BB780648BBF85B709
S1131030826085BF789484E467E00E94340384E48A
S113104066E00E94340383E461E00E94340384E494
S113105065E00E94F50084E462E00E94F50083E408
S113106060E00E94F5000E9430040E948E0281E03C
S113107090E067E070E04AE850E00E94290382E0D3
S113108090E061E070E042E950E00E94290384E4CA
S113109065E00E94F9008130D1F781E090E061E0E1
S11310A070E041EA50E00E9429030E940A03C7EA63
S11310B0D0E00AEA10E00F2EFEEAEF2EF0E0FF2E59
S11310C0F02D0F2EFAE0CF2EDD24F02D81E090E0FC
S11310D061E070E0AE010E94290382E090E061E0EB
S11310E070E0A8010E94290381E090E066E070E0CE
S11310F0A7010E94290384E467E00E943C0383E47F
S113110061E00E943C0384E466E00E9438030E948C
S1131110350483E462E00E943C038091BA0090911C
S1131120BB008A309105D4F481E090E06BE070E07C
S11311300E940E038091BA009091BB00B6010E94F8
S11311400A0CC0960E94EF028FE996E8A1E0815054
S11311509040A040E1F700C00000B8CF843691056C
S11311600CF0B4CF81E090E06BE070E00E940E03DD
S11311708091BA009091BB00B6010E940A0CCB0189
S1131180C0960E94EF028091BA009091BB00B60114
S11311900E940A0CC0960E94EF0298CF1F920F92F1
S11311A00FB60F9211242F933F934F935F936F9336
S11311B07F938F939F93AF93BF93EF93FF9384E4B5
S11311C066E00E943C0384E467E00E943C03809153
S11311D0BA009091BB0001969093BB008093BA0033
S11311E083E461E00E94380387EA91E60197F1F70E
S11311F000C00000FF91EF91BF91AF919F918F913B
S11312007F916F915F914F913F912F910F900FBEFE
S11312100F901F9018951F920F920FB60F921124E2
S11312200F931F932F933F934F935F936F937F93EA
S11312308F939F93AF93BF93CF93DF93EF93FF93DA
S11312408DE090E00E948E07CCB18C2F90E00E943C
S11312508E07C13609F08DC081E090E061E070E056
S113126044EB50E00E9429030E940A0381E090E0CD
S113127061E070E047EA50E00E94290382E090E0D8
S113128061E070E04AEA50E00E94290381E090E0C6
S113129066E070E04EEA50E00E942903C4E1D0E029
S11312A00AE010E083E461E00E943C0384E466E029
S11312B00E943C0384E467E00E9438030E945004C7
S11312C08DE090E00E948E078091BA009091BB005F
S11312D00E9403048091BA009091BB008A3091056A
S11312E0D4F481E090E06BE070E00E940E03809102
S11312F0BA009091BB00B8010E940A0CC0960E94EB
S1131300EF028FE996E8A1E081509040A040E1F718
S113131000C000001EC084369105DCF481E090E03A
S11313206BE070E00E940E038091BA009091BB00C4
S1131330B8010E940A0CCB01C0960E94EF02809172
S1131340BA009091BB00B8010E940A0CC0960E949A
S1131350EF02219709F0A6CF8DE090E00E948E075E
S1131360C4E1D0E08DE390E00E948E072197D1F78D
S11313704DC0C23609F04AC081E090E061E070E0FF
S113138044EB50E00E9429030E940A0381E090E0AC
S113139061E070E047EA50E00E94290382E090E0B7
S11313A061E070E04AEA50E00E94290381E090E0A5
S11313B066E070E04EEA50E00E942903CEE1D0E0FE
S11313C083E461E00E943C0384E466E00E943C0301
S11313D084E467E00E9438030E9450048DE090E0AA
S11313E00E948E078091BA009091BB000E94030472
S11313F0219731F78DE090E00E948E07C4E1D0E0A0
S11314008DE390E00E948E072197D1F7FF91EF9131
S1131410DF91CF91BF91AF919F918F917F916F9108
S11314205F914F913F912F911F910F910F900FBE9C
S11314300F901F9018955058BB27AA270ED04DC166
S11314403ED130F043D120F031F49F3F11F41EF42B
S113145033C10EF4E095E7FB29C1E92F4FD180F3A6
S1131460BA17620773078407950718F071F49EF59D
S113147067C10EF4E0950B2EBA2FA02D0B01B90114
S113148090010C01CA01A0011124FF27591B99F0F6
S1131490593F50F4503E68F11A16F040A22F232F02
S11314A0342F4427585FF3CF469537952795A79552
S11314B0F0405395C9F77EF41F16BA0B620B730BF9
S11314C0840BBAF09150A1F0FF0FBB1F661F771F6A
S11314D0881FC2F70EC0BA0F621F731F841F48F41F
S11314E0879577956795B795F7959E3F08F0B3CFA5
S11314F09395880F08F09927EE0F9795879508958F
S11315000CD0EBC0E3D040F0DAD030F021F45F3FF0
S113151019F0CCC0511115C1CFC0F0D098F3992364
S1131520C9F35523B1F3951B550BBB27AA276217A3
S11315307307840738F09F5F5F4F220F331F441FE8
S1131540AA1FA9F333D00E2E3AF0E0E830D0915020
S11315505040E695001CCAF729D0FE2F27D0660F0D
S1131560771F881FBB1F261737074807AB07B0E84C
S113157009F0BB0B802DBF01FF2793585F4F2AF062
S11315809E3F510568F092C0DCC05F3FECF3983E8B
S1131590DCF3869577956795B795F7959F5FC9F7BF
S11315A0880F911D9695879597F90895E1E0660F48
S11315B0771F881FBB1F621773078407BA0720F0C1
S11315C0621B730B840BBA0BEE1F88F7E09508952A
S11315D004D06894B111B5C0089598D088F09F578D
S11315E090F0B92F9927B751A0F0D1F0660F771F6B
S11315F0881F991F1AF0BA95C9F712C0B13081F04B
S11316009FD0B1E008959CC0672F782F8827B85FDA
S113161039F0B93FCCF3869577956795B395D9F7AB
S11316203EF490958095709561957F4F8F4F9F4FB5
S11316300895E89409C097FB3EF4909580957095C1
S113164061957F4F8F4F9F4F9923A9F0F92F96E90A
S1131650BB279395F695879577956795B795F1117F
S1131660F8CFFAF4BB0F11F460FF1BC06F5F7F4F1C
S11316708F4F9F4F16C0882311F096E911C077232E
S113168021F09EE8872F762F05C0662371F096E837
S1131690862F70E060E02AF09A95660F771F881F06
S11316A0DAF7880F9695879597F9089597F99F67C4
S11316B080E870E060E008959FEF80EC08950024D6
S11316C00A941616170618060906089500240A94A3
S11316D012161306140605060895092E0394000C29
S11316E011F4882352F0BB0F40F4BF2B11F460FFB8
S11316F004C06F5F7F4F8F4F9F4F089557FD9058E1
S1131700440F551F59F05F3F71F04795880F97FBC1
S1131710991F61F09F3F79F087950895121613067B
S11317201406551FF2CF4695F1DF08C016161706AA
S11317301806991FF1CF86957105610508940895DF
S1131740E894BB2766277727CB0197F908950BD038
S1131750C4CFB5DF28F0BADF18F0952309F0A6CF7F
S1131760ABCF1124EECFCADFA0F3959FD1F3950F31
S113177050E0551F629FF001729FBB27F00DB11D11
S1131780639FAA27F00DB11DAA1F649F6627B00DA1
S1131790A11D661F829F2227B00DA11D621F739F8A
S11317A0B00DA11D621F839FA00D611D221F749F98
S11317B03327A00D611D231F849F600D211D822FDF
S11317C0762F6A2F11249F5750408AF0E1F0882326
S11317D04AF0EE0FFF1FBB1F661F771F881F915033
S11317E05040A9F79E3F510570F060CFAACF5F3FEC
S11317F0ECF3983EDCF3869577956795B795F79566
S1131800E7959F5FC1F7FE2B880F911D96958795ED
S113181097F9089597FB092E07260AD077FD04D07F
S11318200CD006D000201AF4709561957F4F08956E
S1131830F6F7909581959F4F0895AA1BBB1B51E124
S113184007C0AA1FBB1FA617B70710F0A61BB70B2C
S1131850881F991F5A95A9F780959095BC01CD01D1
S10918600895F894FFCF87
S11318663F065B4F666D7D477F6F3F065B4F666D38
S11318767D477F6F777F393F79713738392F343514
S1131886362A3132332D41303D2B57656C636F6DEB
S1131896650073656C656374207572206D6F64658D
S11318A6006D6F64653100743D0042503D007374F1
S10D18B665703D006D6F646532003B
S9030000FC
