S02200006D795F6E616D655F656E676C6973685F616E645F6172616269632E7372656380
S11300000C942A000C9447000C9447000C9447006D
S11300100C9447000C9447000C9447000C94470040
S11300200C9447000C9447000C9447000C94470030
S11300300C9447000C9447000C9447000C94470020
S11300400C9447000C9447000C9447000C94470010
S11300500C94470011241FBECFE5D8E0DEBFCDBF0E
S113006010E0A0E6B0E0E6E2F8E002C005900D92F0
S1130070A237B107D9F710E0A2E7B0E001C01D92A2
S1130080A237B107E1F70E94FD020C9411040C940D
S11300900000823451F1833420F4813409F07BC0B0
S11300A007C0833409F43EC0843409F074C057C0D7
S11300B0413069F42AB381E090E0AC0102C0440FFE
S11300C0551F6A95E2F7BA01622B6ABB08952AB3F9
S11300D081E090E0AC0102C0440F551F6A95E2F73D
S11300E0BA01609562236ABB0895413069F427B36D
S11300F081E090E0AC0102C0440F551F6A95E2F71D
S1130100BA01622B67BB089527B381E090E0AC018C
S113011002C0440F551F6A95E2F7BA016095622345
S113012067BB0895413069F424B381E090E0AC01E9
S113013002C0440F551F6A95E2F7BA01622B64BBF3
S1130140089524B381E090E0AC0102C0440F551F30
S11301506A95E2F7BA016095622364BB0895413061
S113016069F421B381E090E0AC0102C0440F551F53
S11301706A95E2F7BA01622B61BB089521B381E06D
S113018090E0AC0102C0440F551F6A95E2F7BA0132
S11301906095622361BB0895823451F1833420F465
S11301A0813409F07BC007C0833409F43EC0843431
S11301B009F074C057C0413069F42BB381E090E07A
S11301C0AC0102C0440F551F6A95E2F7BA01622BD5
S11301D06BBB08952BB381E090E0AC0102C0440FE7
S11301E0551F6A95E2F7BA01609562236BBB0895C7
S11301F0413069F428B381E090E0AC0102C0440FBF
S1130200551F6A95E2F7BA01622B68BB089528B3BB
S113021081E090E0AC0102C0440F551F6A95E2F7FB
S1130220BA016095622368BB0895413069F425B32F
S113023081E090E0AC0102C0440F551F6A95E2F7DB
S1130240BA01622B65BB089525B381E090E0AC014F
S113025002C0440F551F6A95E2F7BA016095622304
S113026065BB0895413069F422B381E090E0AC01AC
S113027002C0440F551F6A95E2F7BA01622B62BBB4
S1130280089522B381E090E0AC0102C0440F551FF1
S11302906A95E2F7BA016095622362BB08958234DD
S11302A0F9F0833420F4813409F052C006C0833459
S11302B051F1843409F04CC039C029B381E090E095
S11302C0062E02C0880F991F0A94E2F730E08223B9
S11302D0932302C0959587956A95E2F7982F38C0C5
S11302E026B381E090E0062E02C0880F991F0A947D
S11302F0E2F730E08223932302C0959587956A95AF
S1130300E2F7982F25C023B381E090E0062E02C0C7
S1130310880F991F0A94E2F730E08223932302C0E6
S1130320959587956A95E2F7982F12C020B381E0DE
S113033090E0062E02C0880F991F0A94E2F730E07D
S11303408223932302C0959587956A95E2F7982FA7
S1130350892F08958234B9F0833418F48134C9F5AF
S113036005C08334E9F08434A1F527C02BB381E0C0
S113037090E0AC0102C0440F551F6A95E2F7BA0140
S113038062276BBB089528B381E090E0AC0102C002
S1130390440F551F6A95E2F7BA01622768BB0895B6
S11303A025B381E090E0AC0102C0440F551F6A956B
S11303B0E2F7BA01622765BB089522B381E090E0B9
S11303C0AC0102C0440F551F6A95E2F7BA016227D7
S11303D062BB0895823461F0833418F4813469F483
S11303E005C0833439F0843441F406C06BBB0895EE
S11303F068BB089565BB089562BB0895823471F0AB
S1130400833418F48134A9F405C0833459F0843456
S113041081F40CC08BB3682B6BBB089588B3682B35
S113042068BB089585B3682B65BB089582B3682BB8
S113043062BB0895823471F0833418F48134A9F4D2
S113044005C0833459F0843481F40CC08BB38F70AD
S11304508BBB089588B38F7088BB089585B38F7064
S113046085BB089582B38F7082BB089582E460E0F7
S113047041E00E94CC008FE99FE00197F1F700C0B2
S1130480000082E460E040E00E94CC008FE99FE03D
S11304900197F1F700C000000895682F81E40E94DD
S11304A0EA0182E461E040E00E94CC000E9436024E
S11304B008958FEF90E7A2E081509040A040E1F7CB
S11304C000C0000081E460E041E00E94490081E452
S11304D061E041E00E94490081E462E041E00E9461
S11304E0490081E463E041E00E94490081E464E062
S11304F041E00E94490081E465E041E00E94490036
S113050081E466E041E00E94490081E467E041E063
S11305100E94490082E460E041E00E94490082E4D4
S113052062E041E00E94490082E461E041E00E940F
S1130530490082E462E040E00E94CC0088E30E942B
S11305404D02AFECB7E01197F1F700C0000082E074
S11305500E944D028FEC97E00197F1F700C0000074
S11305608EE00E944D02AFECB7E01197F1F700C0A6
S1130570000081E00E944D028FE19EE40197F1F7B3
S113058000C000000895682F81E40E94EA0182E41B
S113059061E041E00E94CC000E9436020895CF93AE
S11305A0DF93EC018881882331F021960E94C302F5
S11305B089918823D9F7DF91CF91089581E00E9432
S11305C04D020895282F2150223070F4613170F4C7
S11305D0662371F0813019F4962F91580AC0823045
S11305E041F4962F915405C090E803C090E801C0EF
S11305F090E8892F0E944D0208950E94590280E6D6
S113060090E00E94CF0280E40E944D0280E00E94AC
S1130610C30280E00E94C30284E00E94C3028AE015
S11306200E94C30281E10E94C30289E00E94C302C6
S113063086E00E94C30280E00E94C30280E10E941F
S1130640C30288E00E94C30284E00E94C30282E0E5
S11306500E94C3028FE10E94C30280E00E94C30291
S113066080E00E94C30280E00E94C30280E00E94F6
S1130670C30280E00E94C30281E00E94C30281E0C1
S11306800E94C3028FE10E94C30280E00E94C30261
S113069080E00E94C30280E00E94C30280E00E94C6
S11306A0C30281E00E94C30280E00E94C30281E091
S11306B00E94C30282E00E94C30284E00E94C3023B
S11306C088E00E94C30280E10E94C30284E00E9489
S11306D0C30280E00E94C3028FE00E94C30288E04C
S11306E00E94C3028FE10E94C30280E00E94C30201
S11306F080E00E94C30280E00E94C30281E00E9465
S1130700C30281E00E94C30281E00E94C30281E02F
S11307100E94C3028FE10E94C30280E00E94C302D0
S113072080E00E94C30280E00E94C30280E00E9435
S1130730C30280E00E94C30287E00E94C30287E0F4
S11307400E94C30287E00E94C30282E00E94C302A7
S113075084E00E94C30288E00E94C30281E00E94F8
S1130760C30281E00E94C30281E10E94C30281E1CD
S11307700E94C3028FE10E94C30280E00E94C30270
S113078080E00E94C30280E00E94C30282E060E134
S11307900E94E20280E00E94C30282E06FE00E94B5
S11307A0E20281E00E94C30282E06EE00E94E20263
S11307B080E00E94C30282E06DE00E94E20282E0D7
S11307C00E94C30282E06CE00E94E20280E20E9486
S11307D0C30282E06BE00E94E20283E00E94C30253
S11307E082E06AE00E94E20284E00E94C30282E0A6
S11307F069E00E94E20285E00E94C30282E068E0B0
S11308000E94E20286E00E94C30282E067E00E9446
S1130810E20287E00E94C30282E066E00E94E202F4
S1090820FFCFF894FFCFA6
S11308264D6F68616D6564205A61676C6F756C20E5
S10508360000BC
S9030000FC
