S01F0000757365206F6620766F6C6174696C65206B6579776F72642E737265631E
S11300000C942A000C9447000C9447000C9447006D
S11300100C9447000C9447000C9447000C94470040
S11300200C9447000C9447000C9447000C94470030
S11300300C9447000C9447000C9447000C94470020
S11300400C9447000C9447000C9447000C94470010
S11300500C94470011241FBECFE5D8E0DEBFCDBF0E
S113006010E0A0E6B0E0E0ECF0E002C005900D92F4
S1130070A036B107D9F710E0A0E6B0E001C01D92A8
S1130080A036B107E1F70E9449000C945E000C947D
S113009000008FEF8ABB8FEF99E6A8E18150904072
S11300A0A040E1F700C000008FEF99E6A8E181507D
S11300B09040A040E1F700C00000EDCFF894FFCFDE
S9030000FC
