S02B0000777269746520746F2073706563696669632061646472657373206F6E20454550524F4D2E737265637A
S11300000C942A000C9447000C9447000C9447006D
S11300100C9447000C9447000C9447000C94470040
S11300200C9447000C9447000C9447000C94470030
S11300300C9447000C9447000C9447000C94470020
S11300400C9447000C9447000C9447000C94470010
S11300500C94470011241FBECFE5D8E0DEBFCDBF0E
S113006010E0A0E6B0E0ECEBF0E002C005900D92E9
S1130070A036B107D9F710E0A0E6B0E001C01D92A8
S1130080A036B107E1F70E9456000C945C000C9472
S113009000008EBB9FBB6DBBE29AE19AE199FECF53
S11300A008958EBB9FBBE09A8DB3089587E190E0DD
S10F00B060E50E944900FFCFF894FFCFE8
S9030000FC
