:100000000C942A000C9447000C9447000C94470071
:100010000C9447000C9447000C9447000C94470044
:100020000C9447000C9447000C9447000C94470034
:100030000C9447000C9447000C9447000C94470024
:100040000C9447000C9447000C9447000C94470014
:100050000C94470011241FBECFE5D8E0DEBFCDBF12
:1000600010E0A0E6B0E0EAE8FCE002C005900D92E6
:10007000A83CB107D9F710E0A8ECB0E001C01D9290
:10008000AC3CB107E1F70E9448040C9443060C9481
:100090000000823451F1833420F4813409F07BC0B4
:1000A00007C0833409F43EC0843409F074C057C0DB
:1000B000413069F42AB381E090E0AC0102C0440F02
:1000C000551F6A95E2F7BA01622B6ABB08952AB3FD
:1000D00081E090E0AC0102C0440F551F6A95E2F741
:1000E000BA01609562236ABB0895413069F427B371
:1000F00081E090E0AC0102C0440F551F6A95E2F721
:10010000BA01622B67BB089527B381E090E0AC0190
:1001100002C0440F551F6A95E2F7BA016095622349
:1001200067BB0895413069F424B381E090E0AC01ED
:1001300002C0440F551F6A95E2F7BA01622B64BBF7
:10014000089524B381E090E0AC0102C0440F551F34
:100150006A95E2F7BA016095622364BB0895413065
:1001600069F421B381E090E0AC0102C0440F551F57
:100170006A95E2F7BA01622B61BB089521B381E071
:1001800090E0AC0102C0440F551F6A95E2F7BA0136
:100190006095622361BB0895823451F1833420F469
:1001A000813409F07BC007C0833409F43EC0843435
:1001B00009F074C057C0413069F42BB381E090E07E
:1001C000AC0102C0440F551F6A95E2F7BA01622BD9
:1001D0006BBB08952BB381E090E0AC0102C0440FEB
:1001E000551F6A95E2F7BA01609562236BBB0895CB
:1001F000413069F428B381E090E0AC0102C0440FC3
:10020000551F6A95E2F7BA01622B68BB089528B3BF
:1002100081E090E0AC0102C0440F551F6A95E2F7FF
:10022000BA016095622368BB0895413069F425B333
:1002300081E090E0AC0102C0440F551F6A95E2F7DF
:10024000BA01622B65BB089525B381E090E0AC0153
:1002500002C0440F551F6A95E2F7BA016095622308
:1002600065BB0895413069F422B381E090E0AC01B0
:1002700002C0440F551F6A95E2F7BA01622B62BBB8
:10028000089522B381E090E0AC0102C0440F551FF5
:100290006A95E2F7BA016095622362BB08958234E1
:1002A000F1F0833420F4813409F04FC006C0833468
:1002B00041F1843409F049C036C029B381E090E0AF
:1002C000062E02C0880F991F0A94E2F730E08223BD
:1002D000932302C0959587956A95E2F7089526B312
:1002E00081E090E0062E02C0880F991F0A94E2F781
:1002F00030E08223932302C0959587956A95E2F7B3
:10030000089523B381E090E0062E02C0880F991F64
:100310000A94E2F730E08223932302C095958795F3
:100320006A95E2F7089520B381E090E0062E02C0BE
:10033000880F991F0A94E2F730E08223932302C0CA
:10034000959587956A95E2F7089580E0089582343F
:10035000B9F0833418F48134C9F505C08334E9F069
:100360008434A1F527C02BB381E090E0AC0102C03A
:10037000440F551F6A95E2F7BA0162276BBB0895D7
:1003800028B381E090E0AC0102C0440F551F6A958C
:10039000E2F7BA01622768BB089525B381E090E0D7
:1003A000AC0102C0440F551F6A95E2F7BA016227FB
:1003B00065BB089522B381E090E0AC0102C0440F18
:1003C000551F6A95E2F7BA01622762BB089582342D
:1003D00061F0833418F4813469F405C0833439F052
:1003E000843441F406C06ABB089567BB089564BBBA
:1003F000089561BB0895823461F0833418F4813428
:1004000069F405C0833439F0843441F406C06BBB11
:10041000089568BB089565BB089562BB0895823452
:1004200061F0833418F4813471F405C0833439F0F9
:10043000843449F406C089B3089586B3089583B31C
:10044000089580B3089580E00895823471F0833474
:1004500018F48134A9F405C0833459F0843481F44C
:100460000CC08BB3682B6BBB089588B3682B68BB3B
:10047000089585B3682B65BB089582B3682B62BB72
:100480000895823471F0833418F48134A9F405C0DE
:10049000833459F0843481F40CC08BB38F708BBBE0
:1004A000089588B38F7088BB089585B38F7085BB1E
:1004B000089582B38F7082BB0895823451F18334E2
:1004C00020F4813409F07BC007C0833409F43EC0B6
:1004D000843409F074C057C0413069F42BB381E013
:1004E00090E0AC0102C0440F551F6A95E2F7BA01D3
:1004F000622B6BBB08952BB381E090E0AC0102C08E
:10050000440F551F6A95E2F7BA01609562236BBBF1
:100510000895413069F428B381E090E0AC0102C055
:10052000440F551F6A95E2F7BA01622B68BB089524
:1005300028B381E090E0AC0102C0440F551F6A95DA
:10054000E2F7BA016095622368BB0895413069F40F
:1005500025B381E090E0AC0102C0440F551F6A95BD
:10056000E2F7BA01622B65BB089525B381E090E004
:10057000AC0102C0440F551F6A95E2F7BA016095BD
:10058000622365BB0895413069F422B381E090E0B5
:10059000AC0102C0440F551F6A95E2F7BA01622B05
:1005A00062BB089522B381E090E0AC0102C0440F29
:1005B000551F6A95E2F7BA016095622362BB089500
:1005C0008EBB9FBB6DBBE29AE19AE199FECF089585
:1005D0008EBB9FBBE09A8DB3089584E460E041E058
:1005E0000E94490084E461E041E00E94490084E403
:1005F00062E041E00E94490084E463E041E00E943F
:10060000490084E464E040E00E94490084E465E03D
:1006100040E00E94490084E466E040E00E94490016
:1006200084E467E040E00E94490084E464E041E043
:100630000E945D0284E465E041E00E945D0284E482
:1006400066E041E00E945D0284E467E041E00E94D0
:100650005D0208950F931F93CF93DF93CDB7DEB75D
:1006600060970FB6F894DEBF0FBECDBFDE011196C6
:10067000E0E6F0E080E101900D928150E1F700E0CA
:1006800084E460E041E00E94CC0084E461E041E069
:100690000E94CC0084E462E041E00E94CC0084E44B
:1006A00063E041E00E94CC0084E4602F40E00E94BF
:1006B000CC0010E0612F6C5F84E40E944F0188231E
:1006C00061F4E02FF0E0EE0FFF1FEE0FFF1FE10FD0
:1006D000F11DEC0FFD1F818104C01F5F143051F725
:1006E0000BC060960FB6F894DEBF0FBECDBFDF9192
:1006F000CF911F910F9108950F5F043009F68FEF8E
:10070000F0CF82E460E041E00E94CC008FE99FE0FE
:100710000197F1F700C0000082E460E040E00E9431
:10072000CC008FE99FE00197F1F700C00000089529
:10073000682F81E40E94FB0182E461E040E00E94B6
:10074000CC000E94810308958FEF90E7A2E08150D2
:100750009040A040E1F700C0000081E460E041E08B
:100760000E94490081E461E041E00E94490081E487
:1007700062E041E00E94490081E463E041E00E94C0
:10078000490081E464E041E00E94490081E465E0C1
:1007900041E00E94490081E466E041E00E94490096
:1007A00081E467E041E00E94490082E460E041E0CA
:1007B0000E94490082E462E041E00E94490082E434
:1007C00061E041E00E94490082E462E040E00E9472
:1007D000CC0088E30E949803AFECB7E01197F1F7E3
:1007E00000C0000082E00E9498038FEC97E0019720
:1007F000F1F700C000008EE00E949803AFECB7E074
:100800001197F1F700C0000081E00E9498038FE18A
:100810009EE40197F1F700C000000895682F81E47D
:100820000E94FB0182E461E041E00E94CC000E9452
:1008300081030895CF93DF93EC018881882331F001
:1008400021960E940E0489918823D9F7DF91CF91D8
:10085000089581E00E9498030895282F21502230A6
:1008600070F4613170F4662371F0813019F4962FC1
:1008700091580AC0823041F4962F915405C090E8F7
:1008800003C090E801C090E8892F0E949803089562
:100890002F923F924F925F926F927F928F929F9290
:1008A000BF92CF92DF92EF92FF920F931F93CF935D
:1008B000DF930E94ED020E94A40380E290E00E9478
:1008C000E8028F3F910509F0A2C080E790E00E9406
:1008D0001A040E942A03C82F8F3FD9F30E940E04E6
:1008E0008FEF94E3ACE081509040A040E1F700C06E
:1008F000000081E06AE00E942D048AE20E940E045A
:100900008FEF94E3ACE081509040A040E1F700C04D
:10091000000081E290E06C2F70E00E94E0020E94F3
:100920002A03C82F8F3FD9F30E940E048FEF94E360
:10093000ACE081509040A040E1F700C0000081E0B1
:100940006BE00E942D048AE20E940E048FEF94E374
:10095000ACE081509040A040E1F700C0000082E28E
:1009600090E06C2F70E00E94E0020E942A03C82FE2
:100970008F3FD9F30E940E048FEF94E3ACE08150D7
:100980009040A040E1F700C0000081E06CE00E94D0
:100990002D048AE20E940E048FEF94E3ACE08150B4
:1009A0009040A040E1F700C0000083E290E06C2F8F
:1009B00070E00E94E0020E942A03C82F8F3FD9F303
:1009C0000E940E048FEF94E3ACE081509040A04071
:1009D000E1F700C0000081E06DE00E942D048AE292
:1009E0000E940E048FEF94E3ACE081509040A04051
:1009F000E1F700C0000084E290E06C2F70E00E94FC
:100A0000E00280E290E060E070E00E94E0020F2EE1
:100A1000F1E3BF2EF02DCBECD0E04E01089481081D
:100A200091080F2EFEEF6F2EFFEF7F2EF02D6C0E34
:100A30007D1E0F2EFDEF4F2EFFEF5F2EF02D4C0E83
:100A40005D1E0F2EFAE72F2EF0E03F2EF02D08EC62
:100A500010E00F2EF9ECEF2EF0E0FF2EF02D0F2E10
:100A6000FAECCF2EF0E0DF2EF02D8FEF8883D4014B
:100A70008C93F3018083D2018C930E942904C101DD
:100A80000E941A040E942A03F80180838F3FD1F349
:100A90000E940E048FEF94E3ACE081509040A040A0
:100AA000E1F700C0000081E06CE00E942D048AE2C2
:100AB0000E940E048FEF94E3ACE081509040A04080
:100AC000E1F700C000000E942A03D7018C938F3FFA
:100AD000D1F30E940E048FEF94E3ACE0815090407C
:100AE000A040E1F700C0000081E06DE00E942D040D
:100AF0008AE20E940E048FEF94E3ACE081509040B4
:100B0000A040E1F700C000000E942A03D6018C93A8
:100B10008F3FD1F30E940E048FEF94E3ACE081503D
:100B20009040A040E1F700C0000081E06EE00E942C
:100B30002D048AE20E940E048FEF94E3ACE0815012
:100B40009040A040E1F700C000000E942A03888383
:100B50008F3FD9F30E940E048FEF94E3ACE08150F5
:100B60009040A040E1F700C0000081E06FE00E94EB
:100B70002D048AE20E940E048FEF94E3ACE08150D2
:100B80009040A040E1F700C0000081E290E00E94A8
:100B9000E802D8012C9130E08217930761F582E2D8
:100BA00090E00E94E802F701208130E0821793076D
:100BB00011F583E290E00E94E802D6012C9130E02A
:100BC00082179307C1F484E290E00E94E802288132
:100BD00030E08217930779F40E94290486E890E0B8
:100BE0000E941A0482E061E00E942D0485E990E0F1
:100BF0000E941A0434C0B0E3BB1619F10E94290404
:100C000081EA90E00E941A048FEF99E6A8E18150F2
:100C10009040A040E1F700C000000E94290480EB52
:100C200090E00E941A048B2D0E940E048FEF99E62B
:100C3000A8E181509040A040E1F700C00000BA94C4
:100C400014CF0E94290481EA90E00E941A0482E0F5
:100C500061E00E942D048CEB90E00E941A0480E079
:100C600090E0DF91CF911F910F91FF90EF90DF9077
:100C7000CF90BF909F908F907F906F905F904F909C
:0A0C80003F902F900895F894FFCFE5
:100C8A003738392F3435362A3132332D41303D2B1E
:100C9A0073657420706173733A00636865636B20CF
:100CAA00706173733A007269676874207061737354
:100CBA00776F72640073616665206F70656E656434
:100CCA000077726F6E672070617373776F7264005A
:100CDA007472696573206C6566743A00736166653F
:080CEA0020636C6F7365640068
:00000001FF
