S024000074656D70657261747572652073656E736F72207573696E67204C43442E737265635F
S11300000C942A000C9447000C9447000C9447006D
S11300100C9447000C9447000C9447000C94470040
S11300200C9447000C9447000C9447000C94470030
S11300300C9447000C9447000C9447000C94470020
S11300400C9447000C9447000C9447000C94470010
S11300500C94470011241FBECFE5D8E0DEBFCDBF0E
S113006010E0A0E6B0E0E0EAFBE002C005900D92EB
S1130070AE36B107D9F710E0AEE6B0E001C01D928C
S1130080AE36B107E1F70E94AC030C94CE050C9494
S113009000003E9A3F9A379A329A319A0895369AD6
S11300A0349BFECF349A84B190E045B1342F20E0E4
S11300B0822B932B0895823451F1833420F48134BC
S11300C009F07BC007C0833409F43EC0843409F0CE
S11300D074C057C0413069F42AB381E090E0AC01A8
S11300E002C0440F551F6A95E2F7BA01622B6ABB3E
S11300F008952AB381E090E0AC0102C0440F551F7B
S11301006A95E2F7BA01609562236ABB08954130AB
S113011069F427B381E090E0AC0102C0440F551F9D
S11301206A95E2F7BA01622B67BB089527B381E0B1
S113013090E0AC0102C0440F551F6A95E2F7BA0182
S11301406095622367BB0895413069F424B381E06C
S113015090E0AC0102C0440F551F6A95E2F7BA0162
S1130160622B64BB089524B381E090E0AC0102C02B
S1130170440F551F6A95E2F7BA016095622364BB88
S11301800895413069F421B381E090E0AC0102C0EC
S1130190440F551F6A95E2F7BA01622B61BB0895BB
S11301A021B381E090E0AC0102C0440F551F6A9571
S11301B0E2F7BA016095622361BB0895823451F17C
S11301C0833420F4813409F07BC007C0833409F4FC
S11301D03EC0843409F074C057C0413069F42BB375
S11301E081E090E0AC0102C0440F551F6A95E2F72C
S11301F0BA01622B6BBB08952BB381E090E0AC0194
S113020002C0440F551F6A95E2F7BA016095622354
S11302106BBB0895413069F428B381E090E0AC01F0
S113022002C0440F551F6A95E2F7BA01622B68BBFE
S1130230089528B381E090E0AC0102C0440F551F3B
S11302406A95E2F7BA016095622368BB089541306C
S113025069F425B381E090E0AC0102C0440F551F5E
S11302606A95E2F7BA01622B65BB089525B381E074
S113027090E0AC0102C0440F551F6A95E2F7BA0141
S11302806095622365BB0895413069F422B381E02F
S113029090E0AC0102C0440F551F6A95E2F7BA0121
S11302A0622B62BB089522B381E090E0AC0102C0EE
S11302B0440F551F6A95E2F7BA016095622362BB49
S11302C008958234F9F0833420F4813409F052C063
S11302D006C0833451F1843409F04CC039C029B3C9
S11302E081E090E0062E02C0880F991F0A94E2F77D
S11302F030E08223932302C0959587956A95E2F7AF
S1130300982F38C026B381E090E0062E02C0880FF3
S1130310991F0A94E2F730E08223932302C0959553
S113032087956A95E2F7982F25C023B381E090E082
S1130330062E02C0880F991F0A94E2F730E0822348
S1130340932302C0959587956A95E2F7982F12C07A
S113035020B381E090E0062E02C0880F991F0A9412
S1130360E2F730E08223932302C0959587956A953E
S1130370E2F7982F892F08958234B9F0833418F462
S11303808134C9F505C08334E9F08434A1F527C06C
S11303902BB381E090E0AC0102C0440F551F6A9575
S11303A0E2F7BA0162276BBB089528B381E090E0BD
S11303B0AC0102C0440F551F6A95E2F7BA016227E7
S11303C068BB089525B381E090E0AC0102C0440FFE
S11303D0551F6A95E2F7BA01622765BB089522B3F7
S11303E081E090E0AC0102C0440F551F6A95E2F72A
S11303F0BA01622762BB0895823461F0833418F431
S1130400813469F405C0833439F0843441F406C07E
S11304106BBB089568BB089565BB089562BB0895DE
S1130420823479F0833418F48134C9F405C08334F8
S113043069F08434A1F40FC08BB3607F682B6BBB6D
S1130440089588B3607F682B68BB089585B3607F87
S1130450682B65BB089582B3607F682B62BB0895E7
S1130460823471F0833418F48134A9F405C08334E0
S113047059F0843481F40CC08BB38F708BBB089516
S113048088B38F7088BB089585B38F7085BB08953A
S113049082B38F7082BB0895823491F1833420F447
S11304A0813409F09BC007C0833409F44EC08434FE
S11304B009F094C06FC04130A9F480B78B7F80BF2E
S11304C02AB381E090E0AC0102C0440F551F6A9545
S11304D0E2F7BA01842F809582238ABB8BB3682B01
S11304E06BBB08952BB381E090E0AC0102C0440FD4
S11304F0551F6A95E2F7BA01609562236BBB0895B4
S11305004130A9F480B78B7F80BF27B381E090E0AE
S1130510AC0102C0440F551F6A95E2F7BA01842F5B
S11305208095822387BB88B3682B68BB089528B362
S113053081E090E0AC0102C0440F551F6A95E2F7D8
S1130540BA016095622368BB08954130A9F480B76D
S11305508B7F80BF24B381E090E0AC0102C0440FE4
S1130560551F6A95E2F7BA01842F8095822384BBD4
S113057085B3682B65BB089525B381E090E0AC0199
S113058002C0440F551F6A95E2F7BA0160956223D1
S113059065BB08954130A9F480B78B7F80BF21B338
S11305A081E090E0AC0102C0440F551F6A95E2F768
S11305B0BA01842F8095822381BB82B3682B62BBEE
S11305C0089522B381E090E0AC0102C0440F551FAE
S11305D06A95E2F7BA016095622362BB089582E4EA
S11305E063E041E00E94DE008FE99FE00197F1F7AC
S11305F000C0000082E463E040E00E94DE008FE976
S11306009FE00197F1F700C000000895CF93C82F31
S113061084E46C2F0E9430026C2F607F84E40E947B
S1130620100282E461E040E00E94DE000E94EF02DA
S113063084E46C2F0E9430026C2F6295607F84E406
S11306400E94100282E461E040E00E94DE000E9409
S1130650EF02CF91089584E464E041E00E945B00DE
S113066084E465E041E00E945B0084E466E041E0EC
S11306700E945B0084E467E041E00E945B0082E446
S113068063E041E00E945B0082E462E041E00E949A
S11306905B0082E461E041E00E945B0082E462E08E
S11306A040E00E94DE0082E00E94060388E20E948D
S11306B0060381E00E9406038EE00E9406038FE198
S11306C09EE40197F1F700C000000895CF93C82F6E
S11306D084E46C2F0E9430026C2F607F84E40E94BB
S11306E0100282E461E041E00E94DE000E94EF0219
S11306F084E46C2F0E9430026C2F6295607F84E446
S11307000E94100282E461E041E00E94DE000E9447
S1130710EF02CF910895CF93DF93EC018881882372
S113072031F021960E94660389918823D9F7DF91DD
S1130730CF91089581E00E9406030895813019F451
S1130740862F815806C0823019F4862F815401C047
S113075080E80E94060308950E942B030E9449002A
S113076080E690E00E948B030AE010E00E944F00B4
S1130770BC0180E090E00E94C90420E030E040E841
S11307805EE30E9457050E949D04DC01CB01EC014D
S11307908A309105A8F481E06DE00E949E038EE109
S11307A00E946603CE01B8010E94BA05805D0E94D2
S11307B066038FED0E94660383E40E946603D6CF2E
S11307C08436910598F681E06DE00E949E03CE0187
S11307D0B8010E94BA05C82F862F805D0E94660367
S11307E08C2F805D0E9466038FED0E94660383E474
S11307F00E946603BBCF8EE48CBF83B7886083BF3F
S113080083B78F7B83BF83B7816083BF83B78D7FBB
S113081083BF83B7846083BF089583B7806483BF35
S113082083B7886083BF83B7806283BF83B78061E7
S113083083BF80E48CBF83B7816083BF83B78D7F20
S113084083BF83B7846083BF089520E030E048EC21
S113085052E40E94350420E030E040E853E40E9472
S113086057050E949D046CBF08950CD0E6C0DED0ED
S113087040F0D5D030F021F45F3F19F0C7C05111DA
S113088010C1CAC0EBD098F39923C9F35523B1F32F
S1130890951B550BBB27AA2762177307840738F0EB
S11308A09F5F5F4F220F331F441FAA1FA9F333D04A
S11308B00E2E3AF0E0E830D091505040E695001CFE
S11308C0CAF729D0FE2F27D0660F771F881FBB1FBA
S11308D0261737074807AB07B0E809F0BB0B802D94
S11308E0BF01FF2793585F4F2AF09E3F510568F0E0
S11308F08DC0D7C05F3FECF3983EDCF386957795C7
S11309006795B795F7959F5FC9F7880F911D9695E1
S1130910879597F90895E1E0660F771F881FBB1F3D
S1130920621773078407BA0720F0621B730B840BEA
S1130930BA0BEE1F88F7E095089598D088F09F577A
S113094090F0B92F9927B751A0F0D1F0660F771F17
S1130950881F991F1AF0BA95C9F712C0B13081F0F7
S11309609FD0B1E008959CC0672F782F8827B85F87
S113097039F0B93FCCF3869577956795B395D9F758
S11309803EF490958095709561957F4F8F4F9F4F62
S11309900895E89409C097FB3EF49095809570956E
S11309A061957F4F8F4F9F4F9923A9F0F92F96E9B7
S11309B0BB279395F695879577956795B795F1112C
S11309C0F8CFFAF4BB0F11F460FF1BC06F5F7F4FC9
S11309D08F4F9F4F16C0882311F096E911C07723DB
S11309E021F09EE8872F762F05C0662371F096E8E4
S11309F0862F70E060E02AF09A95660F771F881FB3
S1130A00DAF7880F9695879597F9089597F99F6770
S1130A1080E870E060E008959FEF80EC0895002482
S1130A200A941616170618060906089500240A944F
S1130A3012161306140605060895092E0394000CD5
S1130A4011F4882352F0BB0F40F4BF2B11F460FF64
S1130A5004C06F5F7F4F8F4F9F4F089557FD90588D
S1130A60440F551F59F05F3F71F04795880F97FB6E
S1130A70991F61F09F3F79F0879508951216130628
S1130A801406551FF2CF4695F1DF08C01616170657
S1130A901806991FF1CF869571056105089408958C
S1130AA0E894BB2766277727CB0197F908950BD0E5
S1130AB0C4CFB5DF28F0BADF18F0952309F0A6CF2C
S1130AC0ABCF1124EECFCADFA0F3959FD1F3950FDE
S1130AD050E0551F629FF001729FBB27F00DB11DBE
S1130AE0639FAA27F00DB11DAA1F649F6627B00D4E
S1130AF0A11D661F829F2227B00DA11D621F739F37
S1130B00B00DA11D621F839FA00D611D221F749F44
S1130B103327A00D611D231F849F600D211D822F8B
S1130B20762F6A2F11249F5750408AF0E1F08823D2
S1130B304AF0EE0FFF1FBB1F661F771F881F9150DF
S1130B405040A9F79E3F510570F060CFAACF5F3F98
S1130B50ECF3983EDCF3869577956795B795F79512
S1130B60E7959F5FC1F7FE2B880F911D969587959A
S1130B7097F90895AA1BBB1B51E107C0AA1FBB1F0D
S1130B80A617B70710F0A61BB70B881F991F5A9515
S1130B90A9F780959095BC01CD010895F894FFCFF5
S1110BA074656D70657261747572653D000058
S9030000FC
