:100000000C942A000C9447000C9447000C94470071
:100010000C9447000C9447000C9447000C94470044
:100020000C9447000C9447000C9447000C94470034
:100030000C9447000C9447000C9447000C94470024
:100040000C9447000C9447000C9447000C94470014
:100050000C94470011241FBECFE5D8E0DEBFCDBF12
:1000600010E0A0E6B0E0EAE4F6E002C005900D92F0
:10007000A036B107D9F710E0A0E6B0E001C01D92AC
:10008000A036B107E1F70E9449000C9423030C94B9
:1000900000000E946F0084E460E00E94140384E486
:1000A00061E00E94140384E462E00E94140384E48B
:1000B00063E00E94140384E464E00E94140384E477
:1000C00065E00E94140384E466E00E94140384E463
:1000D00067E00E9414030E94740082BBFCCF3E9A2A
:1000E000379A329A319A0895369A349BFECF349AD1
:1000F00084B190E045B1342F20E0822B932B0895FA
:10010000823451F1833420F4813409F07BC007C07C
:10011000833409F43EC0843409F074C057C04130C0
:1001200069F42AB381E090E0AC0102C0440F551F8E
:100130006A95E2F7BA01622B6ABB08952AB381E09F
:1001400090E0AC0102C0440F551F6A95E2F7BA0176
:10015000609562236ABB0895413069F427B381E05A
:1001600090E0AC0102C0440F551F6A95E2F7BA0156
:10017000622B67BB089527B381E090E0AC0102C019
:10018000440F551F6A95E2F7BA016095622367BB79
:100190000895413069F424B381E090E0AC0102C0DD
:1001A000440F551F6A95E2F7BA01622B64BB0895AC
:1001B00024B381E090E0AC0102C0440F551F6A9562
:1001C000E2F7BA016095622364BB0895413069F497
:1001D00021B381E090E0AC0102C0440F551F6A9545
:1001E000E2F7BA01622B61BB089521B381E090E090
:1001F000AC0102C0440F551F6A95E2F7BA01609541
:10020000622361BB0895823451F1833420F4813438
:1002100009F07BC007C0833409F43EC0843409F080
:1002200074C057C0413069F42BB381E090E0AC0159
:1002300002C0440F551F6A95E2F7BA01622B6BBBEF
:1002400008952BB381E090E0AC0102C0440F551F2C
:100250006A95E2F7BA01609562236BBB089541305D
:1002600069F428B381E090E0AC0102C0440F551F4F
:100270006A95E2F7BA01622B68BB089528B381E062
:1002800090E0AC0102C0440F551F6A95E2F7BA0135
:100290006095622368BB0895413069F425B381E01D
:1002A00090E0AC0102C0440F551F6A95E2F7BA0115
:1002B000622B65BB089525B381E090E0AC0102C0DC
:1002C000440F551F6A95E2F7BA016095622365BB3A
:1002D0000895413069F422B381E090E0AC0102C09E
:1002E000440F551F6A95E2F7BA01622B62BB08956D
:1002F00022B381E090E0AC0102C0440F551F6A9523
:10030000E2F7BA016095622362BB08958234F9F086
:10031000833420F4813409F052C006C0833451F193
:10032000843409F04CC039C029B381E090E0062E36
:1003300002C0880F991F0A94E2F730E082239323CA
:1003400002C0959587956A95E2F7982F38C026B335
:1003500081E090E0062E02C0880F991F0A94E2F710
:1003600030E08223932302C0959587956A95E2F742
:10037000982F25C023B381E090E0062E02C0880F9D
:10038000991F0A94E2F730E08223932302C09595E7
:1003900087956A95E2F7982F12C020B381E090E02C
:1003A000062E02C0880F991F0A94E2F730E08223DC
:1003B000932302C0959587956A95E2F7982F892F28
:1003C00008958234B9F0833418F48134C9F505C036
:1003D0008334E9F08434A1F527C02BB381E090E0A9
:1003E000AC0102C0440F551F6A95E2F7BA016227BB
:1003F0006BBB089528B381E090E0AC0102C0440FCC
:10040000551F6A95E2F7BA01622768BB089525B3C4
:1004100081E090E0AC0102C0440F551F6A95E2F7FD
:10042000BA01622765BB089522B381E090E0AC0178
:1004300002C0440F551F6A95E2F7BA01622762BBFA
:100440000895823461F0833418F4813469F405C06E
:10045000833439F0843441F406C06BBB089568BB23
:10046000089565BB089562BB0895823479F08334A2
:1004700018F48134C9F405C0833469F08434A1F4DC
:100480000FC08BB3607F682B6BBB089588B3607F10
:10049000682B68BB089585B3607F682B65BB0895A2
:1004A00082B3607F682B62BB0895823471F083341D
:1004B00018F48134A9F405C0833459F0843481F4EC
:1004C0000CC08BB38F708BBB089588B38F7088BBC3
:1004D000089585B38F7085BB089582B38F7082BBFA
:1004E0000895823491F1833420F4813409F09BC063
:1004F00007C0833409F44EC0843409F094C06FC03F
:100500004130A9F480B78B7F80BF2AB381E090E0AF
:10051000AC0102C0440F551F6A95E2F7BA01842F5F
:10052000809582238ABB8BB3682B6BBB08952BB35A
:1005300081E090E0AC0102C0440F551F6A95E2F7DC
:10054000BA01609562236BBB08954130A9F480B76E
:100550008B7F80BF27B381E090E0AC0102C0440FE5
:10056000551F6A95E2F7BA01842F8095822387BBD5
:1005700088B3682B68BB089528B381E090E0AC0194
:1005800002C0440F551F6A95E2F7BA0160956223D5
:1005900068BB08954130A9F480B78B7F80BF24B336
:1005A00081E090E0AC0102C0440F551F6A95E2F76C
:1005B000BA01842F8095822384BB85B3682B65BBE9
:1005C000089525B381E090E0AC0102C0440F551FAF
:1005D0006A95E2F7BA016095622365BB08954130E0
:1005E000A9F480B78B7F80BF21B381E090E0AC019C
:1005F00002C0440F551F6A95E2F7BA01842F809517
:10060000822381BB82B3682B62BB089522B381E051
:1006100090E0AC0102C0440F551F6A95E2F7BA01A1
:100620006095622362BB089541E00E9480000895B6
:1006300041E00E940301089540E00E9403010895F3
:0A0640000E94E1010895F894FFCF35
:00000001FF
