S01900006F6D6172206D61696E20647269766572732E7372656378
S11300000C9434000C9451000C9451000C94510045
S11300100C9451000C9451000C9451000C94510018
S11300200C9451000C9451000C9451000C94510008
S11300300C9451000C9451000C9451000C945100F8
S11300400C9451000C9451000C9451000C945100E8
S11300500C9451000C9451000C9451000C945100D8
S11300600C9451000C94510011241FBECFEFD8E022
S1130070DEBFCDBF11E0A0E0B1E0EAE3F4E002C0EE
S113008005900D92A030B107D9F711E0A0E0B1E0DE
S113009001C01D92A030B107E1F70E94F4010C9455
S11300A01B020C94000040E00E94EE0008950E94A0
S11300B04D01089541E00E94EE00089541E00E9440
S11300C08F0008958434F1F0833679F0823431F569
S11300D025B181E090E0AC0102C0440F551F6A9540
S11300E0E2F7BA01622B65B9089528B181E090E086
S11300F0AC0102C0440F551F6A95E2F7BA01622BA6
S113010068B908952BB181E090E0AC0102C0440FBE
S1130110551F6A95E2F7BA01622B6BB908958334CF
S113012019F1843409F43DC0823409F056C04130D9
S113013069F425B181E090E0AC0102C0440F551F81
S11301406A95E2F7BA01622B65B9089525B181E099
S113015090E0AC0102C0440F551F6A95E2F7BA0162
S11301606095622365B90895413069F428B181E04E
S113017090E0AC0102C0440F551F6A95E2F7BA0142
S1130180622B68B9089528B181E090E0AC0102C007
S1130190440F551F6A95E2F7BA016095622368B966
S11301A00895413069F42BB181E090E0AC0102C0C4
S11301B0440F551F6A95E2F7BA01622B6BB9089593
S11301C02BB181E090E0AC0102C0440F551F6A9549
S11301D0E2F7BA01609562236BB90895833419F18B
S11301E0843409F43DC0823409F056C0413069F4C6
S11301F024B181E090E0AC0102C0440F551F6A9520
S1130200E2F7BA01622B64B9089524B181E090E069
S1130210AC0102C0440F551F6A95E2F7BA0160951C
S1130220622364B90895413069F427B181E090E014
S1130230AC0102C0440F551F6A95E2F7BA01622B64
S113024067B9089527B181E090E0AC0102C0440F82
S1130250551F6A95E2F7BA016095622367B908955C
S1130260413069F42AB181E090E0AC0102C0440F4E
S1130270551F6A95E2F7BA01622B6AB908952AB14B
S113028081E090E0AC0102C0440F551F6A95E2F78B
S1130290BA01609562236AB908958334B1F0843455
S11302A031F18234B9F523B181E090E0062E02C029
S11302B0880F991F0A94E2F730E08223932302C047
S11302C0959587956A95E2F7089526B181E090E0C7
S11302D0062E02C0880F991F0A94E2F730E08223A9
S11302E0932302C0959587956A95E2F7089549B1DD
S11302F021E030E0062E02C0220F331F0A94E2F7F9
S113030050E024233523C90102C0959587956A9549
S1130310E2F7089580E090E00895833489F084340E
S1130320E1F0823431F525B181E090E0AC0102C006
S1130330440F551F6A95E2F7BA01622765B908951B
S113034028B181E090E0AC0102C0440F551F6A95CA
S1130350E2F7BA01622768B908952BB181E090E011
S1130360AC0102C0440F551F6A95E2F7BA01622737
S11303706BB90895833431F0843431F0823429F434
S113038064B9089564B908956AB90895833431F05D
S1130390843431F0823429F465B9089568B9089534
S11303A06BB90895833431F0843431F0823431F4FC
S11303B083B1089586B1089589B1089580E090E0ED
S11303C0089541E00E94EE00089541E00E948F00EC
S11303D0089540E00E948F0008950E948D010895C1
S11303E0682F0E944D01089584E46FEF0E94BA01C2
S11303F084E46FEF0E94C6018FE39DE0A3E0815087
S11304009040A040E1F700C0000084E40E94D201C3
S1130410C82F8FE79AE1A6E081509040A040E1F711
S113042000C0000084E460E00E94C60183E46C2FF5
S10D04300E94C601DDCFF894FFCF4F
S9030000FC
